{
  "contractName": "Governance",
  "abi": [
    {
      "inputs": [
        {
          "internalType": "string",
          "name": "_name",
          "type": "string"
        },
        {
          "internalType": "contract ERC721Votes",
          "name": "_token",
          "type": "address"
        },
        {
          "internalType": "contract TimelockController",
          "name": "_timelock",
          "type": "address"
        },
        {
          "internalType": "uint256",
          "name": "_quorum",
          "type": "uint256"
        },
        {
          "internalType": "uint256",
          "name": "_votingDelay",
          "type": "uint256"
        },
        {
          "internalType": "uint256",
          "name": "_votingPeriod",
          "type": "uint256"
        }
      ],
      "stateMutability": "nonpayable",
      "type": "constructor"
    },
    {
      "inputs": [],
      "name": "Empty",
      "type": "error"
    },
    {
      "anonymous": false,
      "inputs": [
        {
          "indexed": false,
          "internalType": "uint256",
          "name": "proposalId",
          "type": "uint256"
        }
      ],
      "name": "ProposalCanceled",
      "type": "event"
    },
    {
      "anonymous": false,
      "inputs": [
        {
          "indexed": false,
          "internalType": "uint256",
          "name": "proposalId",
          "type": "uint256"
        },
        {
          "indexed": false,
          "internalType": "address",
          "name": "proposer",
          "type": "address"
        },
        {
          "indexed": false,
          "internalType": "address[]",
          "name": "targets",
          "type": "address[]"
        },
        {
          "indexed": false,
          "internalType": "uint256[]",
          "name": "values",
          "type": "uint256[]"
        },
        {
          "indexed": false,
          "internalType": "string[]",
          "name": "signatures",
          "type": "string[]"
        },
        {
          "indexed": false,
          "internalType": "bytes[]",
          "name": "calldatas",
          "type": "bytes[]"
        },
        {
          "indexed": false,
          "internalType": "uint256",
          "name": "startBlock",
          "type": "uint256"
        },
        {
          "indexed": false,
          "internalType": "uint256",
          "name": "endBlock",
          "type": "uint256"
        },
        {
          "indexed": false,
          "internalType": "string",
          "name": "description",
          "type": "string"
        }
      ],
      "name": "ProposalCreated",
      "type": "event"
    },
    {
      "anonymous": false,
      "inputs": [
        {
          "indexed": false,
          "internalType": "uint256",
          "name": "proposalId",
          "type": "uint256"
        }
      ],
      "name": "ProposalExecuted",
      "type": "event"
    },
    {
      "anonymous": false,
      "inputs": [
        {
          "indexed": false,
          "internalType": "uint256",
          "name": "proposalId",
          "type": "uint256"
        },
        {
          "indexed": false,
          "internalType": "uint256",
          "name": "eta",
          "type": "uint256"
        }
      ],
      "name": "ProposalQueued",
      "type": "event"
    },
    {
      "anonymous": false,
      "inputs": [
        {
          "indexed": false,
          "internalType": "uint256",
          "name": "oldQuorumNumerator",
          "type": "uint256"
        },
        {
          "indexed": false,
          "internalType": "uint256",
          "name": "newQuorumNumerator",
          "type": "uint256"
        }
      ],
      "name": "QuorumNumeratorUpdated",
      "type": "event"
    },
    {
      "anonymous": false,
      "inputs": [
        {
          "indexed": false,
          "internalType": "address",
          "name": "oldTimelock",
          "type": "address"
        },
        {
          "indexed": false,
          "internalType": "address",
          "name": "newTimelock",
          "type": "address"
        }
      ],
      "name": "TimelockChange",
      "type": "event"
    },
    {
      "anonymous": false,
      "inputs": [
        {
          "indexed": true,
          "internalType": "address",
          "name": "voter",
          "type": "address"
        },
        {
          "indexed": false,
          "internalType": "uint256",
          "name": "proposalId",
          "type": "uint256"
        },
        {
          "indexed": false,
          "internalType": "uint8",
          "name": "support",
          "type": "uint8"
        },
        {
          "indexed": false,
          "internalType": "uint256",
          "name": "weight",
          "type": "uint256"
        },
        {
          "indexed": false,
          "internalType": "string",
          "name": "reason",
          "type": "string"
        }
      ],
      "name": "VoteCast",
      "type": "event"
    },
    {
      "anonymous": false,
      "inputs": [
        {
          "indexed": true,
          "internalType": "address",
          "name": "voter",
          "type": "address"
        },
        {
          "indexed": false,
          "internalType": "uint256",
          "name": "proposalId",
          "type": "uint256"
        },
        {
          "indexed": false,
          "internalType": "uint8",
          "name": "support",
          "type": "uint8"
        },
        {
          "indexed": false,
          "internalType": "uint256",
          "name": "weight",
          "type": "uint256"
        },
        {
          "indexed": false,
          "internalType": "string",
          "name": "reason",
          "type": "string"
        },
        {
          "indexed": false,
          "internalType": "bytes",
          "name": "params",
          "type": "bytes"
        }
      ],
      "name": "VoteCastWithParams",
      "type": "event"
    },
    {
      "inputs": [],
      "name": "BALLOT_TYPEHASH",
      "outputs": [
        {
          "internalType": "bytes32",
          "name": "",
          "type": "bytes32"
        }
      ],
      "stateMutability": "view",
      "type": "function",
      "constant": true
    },
    {
      "inputs": [],
      "name": "COUNTING_MODE",
      "outputs": [
        {
          "internalType": "string",
          "name": "",
          "type": "string"
        }
      ],
      "stateMutability": "pure",
      "type": "function",
      "constant": true
    },
    {
      "inputs": [],
      "name": "EXTENDED_BALLOT_TYPEHASH",
      "outputs": [
        {
          "internalType": "bytes32",
          "name": "",
          "type": "bytes32"
        }
      ],
      "stateMutability": "view",
      "type": "function",
      "constant": true
    },
    {
      "inputs": [
        {
          "internalType": "uint256",
          "name": "proposalId",
          "type": "uint256"
        },
        {
          "internalType": "uint8",
          "name": "support",
          "type": "uint8"
        }
      ],
      "name": "castVote",
      "outputs": [
        {
          "internalType": "uint256",
          "name": "",
          "type": "uint256"
        }
      ],
      "stateMutability": "nonpayable",
      "type": "function"
    },
    {
      "inputs": [
        {
          "internalType": "uint256",
          "name": "proposalId",
          "type": "uint256"
        },
        {
          "internalType": "uint8",
          "name": "support",
          "type": "uint8"
        },
        {
          "internalType": "uint8",
          "name": "v",
          "type": "uint8"
        },
        {
          "internalType": "bytes32",
          "name": "r",
          "type": "bytes32"
        },
        {
          "internalType": "bytes32",
          "name": "s",
          "type": "bytes32"
        }
      ],
      "name": "castVoteBySig",
      "outputs": [
        {
          "internalType": "uint256",
          "name": "",
          "type": "uint256"
        }
      ],
      "stateMutability": "nonpayable",
      "type": "function"
    },
    {
      "inputs": [
        {
          "internalType": "uint256",
          "name": "proposalId",
          "type": "uint256"
        },
        {
          "internalType": "uint8",
          "name": "support",
          "type": "uint8"
        },
        {
          "internalType": "string",
          "name": "reason",
          "type": "string"
        }
      ],
      "name": "castVoteWithReason",
      "outputs": [
        {
          "internalType": "uint256",
          "name": "",
          "type": "uint256"
        }
      ],
      "stateMutability": "nonpayable",
      "type": "function"
    },
    {
      "inputs": [
        {
          "internalType": "uint256",
          "name": "proposalId",
          "type": "uint256"
        },
        {
          "internalType": "uint8",
          "name": "support",
          "type": "uint8"
        },
        {
          "internalType": "string",
          "name": "reason",
          "type": "string"
        },
        {
          "internalType": "bytes",
          "name": "params",
          "type": "bytes"
        }
      ],
      "name": "castVoteWithReasonAndParams",
      "outputs": [
        {
          "internalType": "uint256",
          "name": "",
          "type": "uint256"
        }
      ],
      "stateMutability": "nonpayable",
      "type": "function"
    },
    {
      "inputs": [
        {
          "internalType": "uint256",
          "name": "proposalId",
          "type": "uint256"
        },
        {
          "internalType": "uint8",
          "name": "support",
          "type": "uint8"
        },
        {
          "internalType": "string",
          "name": "reason",
          "type": "string"
        },
        {
          "internalType": "bytes",
          "name": "params",
          "type": "bytes"
        },
        {
          "internalType": "uint8",
          "name": "v",
          "type": "uint8"
        },
        {
          "internalType": "bytes32",
          "name": "r",
          "type": "bytes32"
        },
        {
          "internalType": "bytes32",
          "name": "s",
          "type": "bytes32"
        }
      ],
      "name": "castVoteWithReasonAndParamsBySig",
      "outputs": [
        {
          "internalType": "uint256",
          "name": "",
          "type": "uint256"
        }
      ],
      "stateMutability": "nonpayable",
      "type": "function"
    },
    {
      "inputs": [
        {
          "internalType": "address[]",
          "name": "targets",
          "type": "address[]"
        },
        {
          "internalType": "uint256[]",
          "name": "values",
          "type": "uint256[]"
        },
        {
          "internalType": "bytes[]",
          "name": "calldatas",
          "type": "bytes[]"
        },
        {
          "internalType": "bytes32",
          "name": "descriptionHash",
          "type": "bytes32"
        }
      ],
      "name": "execute",
      "outputs": [
        {
          "internalType": "uint256",
          "name": "",
          "type": "uint256"
        }
      ],
      "stateMutability": "payable",
      "type": "function",
      "payable": true
    },
    {
      "inputs": [
        {
          "internalType": "address",
          "name": "account",
          "type": "address"
        },
        {
          "internalType": "uint256",
          "name": "blockNumber",
          "type": "uint256"
        }
      ],
      "name": "getVotes",
      "outputs": [
        {
          "internalType": "uint256",
          "name": "",
          "type": "uint256"
        }
      ],
      "stateMutability": "view",
      "type": "function",
      "constant": true
    },
    {
      "inputs": [
        {
          "internalType": "address",
          "name": "account",
          "type": "address"
        },
        {
          "internalType": "uint256",
          "name": "blockNumber",
          "type": "uint256"
        },
        {
          "internalType": "bytes",
          "name": "params",
          "type": "bytes"
        }
      ],
      "name": "getVotesWithParams",
      "outputs": [
        {
          "internalType": "uint256",
          "name": "",
          "type": "uint256"
        }
      ],
      "stateMutability": "view",
      "type": "function",
      "constant": true
    },
    {
      "inputs": [
        {
          "internalType": "uint256",
          "name": "proposalId",
          "type": "uint256"
        },
        {
          "internalType": "address",
          "name": "account",
          "type": "address"
        }
      ],
      "name": "hasVoted",
      "outputs": [
        {
          "internalType": "bool",
          "name": "",
          "type": "bool"
        }
      ],
      "stateMutability": "view",
      "type": "function",
      "constant": true
    },
    {
      "inputs": [
        {
          "internalType": "address[]",
          "name": "targets",
          "type": "address[]"
        },
        {
          "internalType": "uint256[]",
          "name": "values",
          "type": "uint256[]"
        },
        {
          "internalType": "bytes[]",
          "name": "calldatas",
          "type": "bytes[]"
        },
        {
          "internalType": "bytes32",
          "name": "descriptionHash",
          "type": "bytes32"
        }
      ],
      "name": "hashProposal",
      "outputs": [
        {
          "internalType": "uint256",
          "name": "",
          "type": "uint256"
        }
      ],
      "stateMutability": "pure",
      "type": "function",
      "constant": true
    },
    {
      "inputs": [],
      "name": "name",
      "outputs": [
        {
          "internalType": "string",
          "name": "",
          "type": "string"
        }
      ],
      "stateMutability": "view",
      "type": "function",
      "constant": true
    },
    {
      "inputs": [
        {
          "internalType": "address",
          "name": "",
          "type": "address"
        },
        {
          "internalType": "address",
          "name": "",
          "type": "address"
        },
        {
          "internalType": "uint256[]",
          "name": "",
          "type": "uint256[]"
        },
        {
          "internalType": "uint256[]",
          "name": "",
          "type": "uint256[]"
        },
        {
          "internalType": "bytes",
          "name": "",
          "type": "bytes"
        }
      ],
      "name": "onERC1155BatchReceived",
      "outputs": [
        {
          "internalType": "bytes4",
          "name": "",
          "type": "bytes4"
        }
      ],
      "stateMutability": "nonpayable",
      "type": "function"
    },
    {
      "inputs": [
        {
          "internalType": "address",
          "name": "",
          "type": "address"
        },
        {
          "internalType": "address",
          "name": "",
          "type": "address"
        },
        {
          "internalType": "uint256",
          "name": "",
          "type": "uint256"
        },
        {
          "internalType": "uint256",
          "name": "",
          "type": "uint256"
        },
        {
          "internalType": "bytes",
          "name": "",
          "type": "bytes"
        }
      ],
      "name": "onERC1155Received",
      "outputs": [
        {
          "internalType": "bytes4",
          "name": "",
          "type": "bytes4"
        }
      ],
      "stateMutability": "nonpayable",
      "type": "function"
    },
    {
      "inputs": [
        {
          "internalType": "address",
          "name": "",
          "type": "address"
        },
        {
          "internalType": "address",
          "name": "",
          "type": "address"
        },
        {
          "internalType": "uint256",
          "name": "",
          "type": "uint256"
        },
        {
          "internalType": "bytes",
          "name": "",
          "type": "bytes"
        }
      ],
      "name": "onERC721Received",
      "outputs": [
        {
          "internalType": "bytes4",
          "name": "",
          "type": "bytes4"
        }
      ],
      "stateMutability": "nonpayable",
      "type": "function"
    },
    {
      "inputs": [
        {
          "internalType": "uint256",
          "name": "proposalId",
          "type": "uint256"
        }
      ],
      "name": "proposalDeadline",
      "outputs": [
        {
          "internalType": "uint256",
          "name": "",
          "type": "uint256"
        }
      ],
      "stateMutability": "view",
      "type": "function",
      "constant": true
    },
    {
      "inputs": [
        {
          "internalType": "uint256",
          "name": "proposalId",
          "type": "uint256"
        }
      ],
      "name": "proposalEta",
      "outputs": [
        {
          "internalType": "uint256",
          "name": "",
          "type": "uint256"
        }
      ],
      "stateMutability": "view",
      "type": "function",
      "constant": true
    },
    {
      "inputs": [
        {
          "internalType": "uint256",
          "name": "proposalId",
          "type": "uint256"
        }
      ],
      "name": "proposalSnapshot",
      "outputs": [
        {
          "internalType": "uint256",
          "name": "",
          "type": "uint256"
        }
      ],
      "stateMutability": "view",
      "type": "function",
      "constant": true
    },
    {
      "inputs": [],
      "name": "proposalThreshold",
      "outputs": [
        {
          "internalType": "uint256",
          "name": "",
          "type": "uint256"
        }
      ],
      "stateMutability": "view",
      "type": "function",
      "constant": true
    },
    {
      "inputs": [
        {
          "internalType": "uint256",
          "name": "proposalId",
          "type": "uint256"
        }
      ],
      "name": "proposalVotes",
      "outputs": [
        {
          "internalType": "uint256",
          "name": "againstVotes",
          "type": "uint256"
        },
        {
          "internalType": "uint256",
          "name": "forVotes",
          "type": "uint256"
        },
        {
          "internalType": "uint256",
          "name": "abstainVotes",
          "type": "uint256"
        }
      ],
      "stateMutability": "view",
      "type": "function",
      "constant": true
    },
    {
      "inputs": [
        {
          "internalType": "address[]",
          "name": "targets",
          "type": "address[]"
        },
        {
          "internalType": "uint256[]",
          "name": "values",
          "type": "uint256[]"
        },
        {
          "internalType": "bytes[]",
          "name": "calldatas",
          "type": "bytes[]"
        },
        {
          "internalType": "bytes32",
          "name": "descriptionHash",
          "type": "bytes32"
        }
      ],
      "name": "queue",
      "outputs": [
        {
          "internalType": "uint256",
          "name": "",
          "type": "uint256"
        }
      ],
      "stateMutability": "nonpayable",
      "type": "function"
    },
    {
      "inputs": [],
      "name": "quorumDenominator",
      "outputs": [
        {
          "internalType": "uint256",
          "name": "",
          "type": "uint256"
        }
      ],
      "stateMutability": "view",
      "type": "function",
      "constant": true
    },
    {
      "inputs": [],
      "name": "quorumNumerator",
      "outputs": [
        {
          "internalType": "uint256",
          "name": "",
          "type": "uint256"
        }
      ],
      "stateMutability": "view",
      "type": "function",
      "constant": true
    },
    {
      "inputs": [
        {
          "internalType": "address",
          "name": "target",
          "type": "address"
        },
        {
          "internalType": "uint256",
          "name": "value",
          "type": "uint256"
        },
        {
          "internalType": "bytes",
          "name": "data",
          "type": "bytes"
        }
      ],
      "name": "relay",
      "outputs": [],
      "stateMutability": "nonpayable",
      "type": "function"
    },
    {
      "inputs": [],
      "name": "timelock",
      "outputs": [
        {
          "internalType": "address",
          "name": "",
          "type": "address"
        }
      ],
      "stateMutability": "view",
      "type": "function",
      "constant": true
    },
    {
      "inputs": [],
      "name": "token",
      "outputs": [
        {
          "internalType": "contract IVotes",
          "name": "",
          "type": "address"
        }
      ],
      "stateMutability": "view",
      "type": "function",
      "constant": true
    },
    {
      "inputs": [
        {
          "internalType": "uint256",
          "name": "newQuorumNumerator",
          "type": "uint256"
        }
      ],
      "name": "updateQuorumNumerator",
      "outputs": [],
      "stateMutability": "nonpayable",
      "type": "function"
    },
    {
      "inputs": [
        {
          "internalType": "contract TimelockController",
          "name": "newTimelock",
          "type": "address"
        }
      ],
      "name": "updateTimelock",
      "outputs": [],
      "stateMutability": "nonpayable",
      "type": "function"
    },
    {
      "inputs": [],
      "name": "version",
      "outputs": [
        {
          "internalType": "string",
          "name": "",
          "type": "string"
        }
      ],
      "stateMutability": "view",
      "type": "function",
      "constant": true
    },
    {
      "inputs": [],
      "name": "votingDelay_",
      "outputs": [
        {
          "internalType": "uint256",
          "name": "",
          "type": "uint256"
        }
      ],
      "stateMutability": "view",
      "type": "function",
      "constant": true
    },
    {
      "inputs": [],
      "name": "votingPeriod_",
      "outputs": [
        {
          "internalType": "uint256",
          "name": "",
          "type": "uint256"
        }
      ],
      "stateMutability": "view",
      "type": "function",
      "constant": true
    },
    {
      "stateMutability": "payable",
      "type": "receive",
      "payable": true
    },
    {
      "inputs": [],
      "name": "votingDelay",
      "outputs": [
        {
          "internalType": "uint256",
          "name": "",
          "type": "uint256"
        }
      ],
      "stateMutability": "view",
      "type": "function",
      "constant": true
    },
    {
      "inputs": [],
      "name": "votingPeriod",
      "outputs": [
        {
          "internalType": "uint256",
          "name": "",
          "type": "uint256"
        }
      ],
      "stateMutability": "view",
      "type": "function",
      "constant": true
    },
    {
      "inputs": [
        {
          "internalType": "uint256",
          "name": "blockNumber",
          "type": "uint256"
        }
      ],
      "name": "quorum",
      "outputs": [
        {
          "internalType": "uint256",
          "name": "",
          "type": "uint256"
        }
      ],
      "stateMutability": "view",
      "type": "function",
      "constant": true
    },
    {
      "inputs": [
        {
          "internalType": "uint256",
          "name": "proposalId",
          "type": "uint256"
        }
      ],
      "name": "state",
      "outputs": [
        {
          "internalType": "enum IGovernor.ProposalState",
          "name": "",
          "type": "uint8"
        }
      ],
      "stateMutability": "view",
      "type": "function",
      "constant": true
    },
    {
      "inputs": [
        {
          "internalType": "address[]",
          "name": "targets",
          "type": "address[]"
        },
        {
          "internalType": "uint256[]",
          "name": "values",
          "type": "uint256[]"
        },
        {
          "internalType": "bytes[]",
          "name": "calldatas",
          "type": "bytes[]"
        },
        {
          "internalType": "string",
          "name": "description",
          "type": "string"
        }
      ],
      "name": "propose",
      "outputs": [
        {
          "internalType": "uint256",
          "name": "",
          "type": "uint256"
        }
      ],
      "stateMutability": "nonpayable",
      "type": "function"
    },
    {
      "inputs": [
        {
          "internalType": "bytes4",
          "name": "interfaceId",
          "type": "bytes4"
        }
      ],
      "name": "supportsInterface",
      "outputs": [
        {
          "internalType": "bool",
          "name": "",
          "type": "bool"
        }
      ],
      "stateMutability": "view",
      "type": "function",
      "constant": true
    }
  ],
  "bytecode": "0x6101606040523480156200001257600080fd5b50604051620066fb380380620066fb8339818101604052810190620000389190620006ac565b83838688806200004d6200018d60201b60201c565b60008280519060200120905060008280519060200120905060007f8b73c3c69bb8fe3d512ecc4cf759cc79239f7b179b0ffacaa9a75d522b39400f90508260e081815250508161010081815250504660a08181525050620000b6818484620001ca60201b60201c565b608081815250503073ffffffffffffffffffffffffffffffffffffffff1660c08173ffffffffffffffffffffffffffffffffffffffff1681525050806101208181525050505050505080600090805190602001906200011792919062000352565b50508073ffffffffffffffffffffffffffffffffffffffff166101408173ffffffffffffffffffffffffffffffffffffffff16815250505062000160816200020660201b60201c565b506200017281620002a860201b60201c565b5081600881905550806009819055505050505050506200098f565b60606040518060400160405280600181526020017f3100000000000000000000000000000000000000000000000000000000000000815250905090565b60008383834630604051602001620001e7959493929190620007a4565b6040516020818303038152906040528051906020012090509392505050565b620002166200034960201b60201c565b8111156200025b576040517f08c379a00000000000000000000000000000000000000000000000000000000081526004016200025290620008ae565b60405180910390fd5b60006005549050816005819055507f0553476bf02ef2726e8ce5ced78d63e26e602e4a2257b1f559418e24b463399781836040516200029c929190620008d0565b60405180910390a15050565b7f08f74ea46ef7894f65eabfb5e6e695de773a000b47c529ab559178069b226401600660009054906101000a900473ffffffffffffffffffffffffffffffffffffffff1682604051620002fd929190620008fd565b60405180910390a180600660006101000a81548173ffffffffffffffffffffffffffffffffffffffff021916908373ffffffffffffffffffffffffffffffffffffffff16021790555050565b60006064905090565b828054620003609062000959565b90600052602060002090601f016020900481019282620003845760008555620003d0565b82601f106200039f57805160ff1916838001178555620003d0565b82800160010185558215620003d0579182015b82811115620003cf578251825591602001919060010190620003b2565b5b509050620003df9190620003e3565b5090565b5b80821115620003fe576000816000905550600101620003e4565b5090565b6000604051905090565b600080fd5b600080fd5b600080fd5b600080fd5b6000601f19601f8301169050919050565b7f4e487b7100000000000000000000000000000000000000000000000000000000600052604160045260246000fd5b6200046b8262000420565b810181811067ffffffffffffffff821117156200048d576200048c62000431565b5b80604052505050565b6000620004a262000402565b9050620004b0828262000460565b919050565b600067ffffffffffffffff821115620004d357620004d262000431565b5b620004de8262000420565b9050602081019050919050565b60005b838110156200050b578082015181840152602081019050620004ee565b838111156200051b576000848401525b50505050565b6000620005386200053284620004b5565b62000496565b9050828152602081018484840111156200055757620005566200041b565b5b62000564848285620004eb565b509392505050565b600082601f83011262000584576200058362000416565b5b81516200059684826020860162000521565b91505092915050565b600073ffffffffffffffffffffffffffffffffffffffff82169050919050565b6000620005cc826200059f565b9050919050565b6000620005e082620005bf565b9050919050565b620005f281620005d3565b8114620005fe57600080fd5b50565b6000815190506200061281620005e7565b92915050565b600062000625826200059f565b9050919050565b6000620006398262000618565b9050919050565b6200064b816200062c565b81146200065757600080fd5b50565b6000815190506200066b8162000640565b92915050565b6000819050919050565b620006868162000671565b81146200069257600080fd5b50565b600081519050620006a6816200067b565b92915050565b60008060008060008060c08789031215620006cc57620006cb6200040c565b5b600087015167ffffffffffffffff811115620006ed57620006ec62000411565b5b620006fb89828a016200056c565b96505060206200070e89828a0162000601565b95505060406200072189828a016200065a565b94505060606200073489828a0162000695565b93505060806200074789828a0162000695565b92505060a06200075a89828a0162000695565b9150509295509295509295565b6000819050919050565b6200077c8162000767565b82525050565b6200078d8162000671565b82525050565b6200079e81620005bf565b82525050565b600060a082019050620007bb600083018862000771565b620007ca602083018762000771565b620007d9604083018662000771565b620007e8606083018562000782565b620007f7608083018462000793565b9695505050505050565b600082825260208201905092915050565b7f476f7665726e6f72566f74657351756f72756d4672616374696f6e3a2071756f60008201527f72756d4e756d657261746f72206f7665722071756f72756d44656e6f6d696e6160208201527f746f720000000000000000000000000000000000000000000000000000000000604082015250565b60006200089660438362000801565b9150620008a38262000812565b606082019050919050565b60006020820190508181036000830152620008c98162000887565b9050919050565b6000604082019050620008e7600083018562000782565b620008f6602083018462000782565b9392505050565b600060408201905062000914600083018562000793565b62000923602083018462000793565b9392505050565b7f4e487b7100000000000000000000000000000000000000000000000000000000600052602260045260246000fd5b600060028204905060018216806200097257607f821691505b602082108114156200098957620009886200092a565b5b50919050565b60805160a05160c05160e051610100516101205161014051615d03620009f86000396000818161194b015281816123f901526125950152600061285b0152600061289d0152600061287c015260006127b101526000612807015260006128300152615d036000f3fe6080604052600436106102345760003560e01c80637b3c71d31161012e578063c01f9e37116100ab578063deaaa7cc1161006f578063deaaa7cc1461097a578063eb9019d4146109a5578063f23a6e61146109e2578063f8ce560a14610a1f578063fc0c546a14610a5c5761027a565b8063c01f9e3714610881578063c28bc2fa146108be578063c59057e4146108e7578063d33219b414610924578063dd4e2ba51461094f5761027a565b8063a7713a70116100f2578063a7713a7014610788578063a890c910146107b3578063ab58fb8e146107dc578063b58131b014610819578063bc197c81146108445761027a565b80637b3c71d31461067b5780637d5e81e2146106b85780638b02dbde146106f557806397c3d334146107205780639a802a6d1461074b5761027a565b80632fe3e261116101bc5780634385963211610180578063438596321461055a578063544ffc9c1461059757806354fd4d50146105d657806356781388146106015780635f398a141461063e5761027a565b80632fe3e2611461045f5780633932abb11461048a5780633bccf4fd146104b55780633e4f49e6146104f257806342024c2b1461052f5761027a565b806306fdde031161020357806306fdde031461034d578063150b7a0214610378578063160cbed7146103b55780632656227d146103f25780632d63f693146104225761027a565b806301ffc9a71461027f57806302a251a3146102bc57806303420181146102e757806306f3f9e6146103245761027a565b3661027a573073ffffffffffffffffffffffffffffffffffffffff16610258610a87565b73ffffffffffffffffffffffffffffffffffffffff161461027857600080fd5b005b600080fd5b34801561028b57600080fd5b506102a660048036038101906102a19190613488565b610a96565b6040516102b391906134d0565b60405180910390f35b3480156102c857600080fd5b506102d1610aa8565b6040516102de9190613504565b60405180910390f35b3480156102f357600080fd5b5061030e60048036038101906103099190613760565b610ab2565b60405161031b9190613504565b60405180910390f35b34801561033057600080fd5b5061034b6004803603810190610346919061383e565b610b97565b005b34801561035957600080fd5b50610362610c93565b60405161036f91906138f3565b60405180910390f35b34801561038457600080fd5b5061039f600480360381019061039a9190613973565b610d25565b6040516103ac9190613a05565b60405180910390f35b3480156103c157600080fd5b506103dc60048036038101906103d79190613c87565b610d39565b6040516103e99190613504565b60405180910390f35b61040c60048036038101906104079190613c87565b610ff3565b6040516104199190613504565b60405180910390f35b34801561042e57600080fd5b506104496004803603810190610444919061383e565b611140565b6040516104569190613504565b60405180910390f35b34801561046b57600080fd5b506104746111ae565b6040516104819190613d51565b60405180910390f35b34801561049657600080fd5b5061049f6111d2565b6040516104ac9190613504565b60405180910390f35b3480156104c157600080fd5b506104dc60048036038101906104d79190613d6c565b6111dc565b6040516104e99190613504565b60405180910390f35b3480156104fe57600080fd5b506105196004803603810190610514919061383e565b611266565b6040516105269190613e5e565b60405180910390f35b34801561053b57600080fd5b50610544611278565b6040516105519190613504565b60405180910390f35b34801561056657600080fd5b50610581600480360381019061057c9190613e79565b61127e565b60405161058e91906134d0565b60405180910390f35b3480156105a357600080fd5b506105be60048036038101906105b9919061383e565b6112e9565b6040516105cd93929190613eb9565b60405180910390f35b3480156105e257600080fd5b506105eb611321565b6040516105f891906138f3565b60405180910390f35b34801561060d57600080fd5b5061062860048036038101906106239190613ef0565b61135e565b6040516106359190613504565b60405180910390f35b34801561064a57600080fd5b5061066560048036038101906106609190613f30565b61138f565b6040516106729190613504565b60405180910390f35b34801561068757600080fd5b506106a2600480360381019061069d9190613fd4565b6113f9565b6040516106af9190613504565b60405180910390f35b3480156106c457600080fd5b506106df60048036038101906106da91906140e9565b611461565b6040516106ec9190613504565b60405180910390f35b34801561070157600080fd5b5061070a611479565b6040516107179190613504565b60405180910390f35b34801561072c57600080fd5b5061073561147f565b6040516107429190613504565b60405180910390f35b34801561075757600080fd5b50610772600480360381019061076d91906141c0565b611488565b60405161077f9190613504565b60405180910390f35b34801561079457600080fd5b5061079d61149e565b6040516107aa9190613504565b60405180910390f35b3480156107bf57600080fd5b506107da60048036038101906107d5919061427f565b6114a8565b005b3480156107e857600080fd5b5061080360048036038101906107fe919061383e565b6115a4565b6040516108109190613504565b60405180910390f35b34801561082557600080fd5b5061082e611671565b60405161083b9190613504565b60405180910390f35b34801561085057600080fd5b5061086b600480360381019061086691906142ac565b611676565b6040516108789190613a05565b60405180910390f35b34801561088d57600080fd5b506108a860048036038101906108a3919061383e565b61168b565b6040516108b59190613504565b60405180910390f35b3480156108ca57600080fd5b506108e560048036038101906108e091906143d1565b6116f9565b005b3480156108f357600080fd5b5061090e60048036038101906109099190613c87565b61183f565b60405161091b9190613504565b60405180910390f35b34801561093057600080fd5b5061093961187b565b6040516109469190614454565b60405180910390f35b34801561095b57600080fd5b506109646118a5565b60405161097191906138f3565b60405180910390f35b34801561098657600080fd5b5061098f6118e2565b60405161099c9190613d51565b60405180910390f35b3480156109b157600080fd5b506109cc60048036038101906109c7919061446f565b611906565b6040516109d99190613504565b60405180910390f35b3480156109ee57600080fd5b50610a096004803603810190610a0491906144af565b611922565b604051610a169190613a05565b60405180910390f35b348015610a2b57600080fd5b50610a466004803603810190610a41919061383e565b611937565b604051610a539190613504565b60405180910390f35b348015610a6857600080fd5b50610a71611949565b604051610a7e91906145a5565b60405180910390f35b6000610a9161196d565b905090565b6000610aa182611997565b9050919050565b6000600954905090565b600080610b35610b2d7fb3b3f3b703cd84ce352197dcff232b1b5d3cfb2025ce47cf04742d0651f1af888c8c8c8c604051610aee9291906145f0565b60405180910390208b80519060200120604051602001610b12959493929190614618565b60405160208183030381529060405280519060200120611a11565b868686611a2b565b9050610b888a828b8b8b8080601f016020809104026020016040519081016040528093929190818152602001838380828437600081840152601f19601f820116905080830192505050505050508a611a56565b91505098975050505050505050565b610b9f610a87565b73ffffffffffffffffffffffffffffffffffffffff16610bbd611c13565b73ffffffffffffffffffffffffffffffffffffffff1614610c13576040517f08c379a0000000000000000000000000000000000000000000000000000000008152600401610c0a906146b7565b60405180910390fd5b3073ffffffffffffffffffffffffffffffffffffffff16610c32610a87565b73ffffffffffffffffffffffffffffffffffffffff1614610c87576000610c57611c1b565b604051610c659291906145f0565b604051809103902090505b80610c7b6002611c28565b14610c8557610c70565b505b610c9081611d04565b50565b606060008054610ca290614706565b80601f0160208091040260200160405190810160405280929190818152602001828054610cce90614706565b8015610d1b5780601f10610cf057610100808354040283529160200191610d1b565b820191906000526020600020905b815481529060010190602001808311610cfe57829003601f168201915b5050505050905090565b600063150b7a0260e01b9050949350505050565b600080610d488686868661183f565b905060046007811115610d5e57610d5d613de7565b5b610d6782611266565b6007811115610d7957610d78613de7565b5b14610db9576040517f08c379a0000000000000000000000000000000000000000000000000000000008152600401610db0906147aa565b60405180910390fd5b6000600660009054906101000a900473ffffffffffffffffffffffffffffffffffffffff1673ffffffffffffffffffffffffffffffffffffffff1663f27a0c926040518163ffffffff1660e01b8152600401602060405180830381865afa158015610e28573d6000803e3d6000fd5b505050506040513d601f19601f82011682018060405250810190610e4c91906147df565b9050600660009054906101000a900473ffffffffffffffffffffffffffffffffffffffff1673ffffffffffffffffffffffffffffffffffffffff1663b1c5f4278888886000896040518663ffffffff1660e01b8152600401610eb2959493929190614ae7565b602060405180830381865afa158015610ecf573d6000803e3d6000fd5b505050506040513d601f19601f82011682018060405250810190610ef39190614b64565b6007600084815260200190815260200160002081905550600660009054906101000a900473ffffffffffffffffffffffffffffffffffffffff1673ffffffffffffffffffffffffffffffffffffffff16638f2a0bb0888888600089876040518763ffffffff1660e01b8152600401610f7096959493929190614b91565b600060405180830381600087803b158015610f8a57600080fd5b505af1158015610f9e573d6000803e3d6000fd5b505050507f9a2e42fd6722813d69113e7d0079d3d940171428df7373df9c7f7617cfda2892828242610fd09190614c36565b604051610fde929190614c8c565b60405180910390a18192505050949350505050565b6000806110028686868661183f565b9050600061100f82611266565b90506004600781111561102557611024613de7565b5b81600781111561103857611037613de7565b5b148061106857506005600781111561105357611052613de7565b5b81600781111561106657611065613de7565b5b145b6110a7576040517f08c379a000000000000000000000000000000000000000000000000000000000815260040161109e906147aa565b60405180910390fd5b600180600084815260200190815260200160002060020160006101000a81548160ff0219169083151502179055507f712ae1383f79ac853f8d882153778e0260ef8f03b504e2866e0593e04d2b291f826040516111049190613504565b60405180910390a16111198288888888611d99565b6111268288888888611e7d565b6111338288888888611e91565b8192505050949350505050565b600061119d600160008481526020019081526020016000206000016040518060200160405290816000820160009054906101000a900467ffffffffffffffff1667ffffffffffffffff1667ffffffffffffffff1681525050611eec565b67ffffffffffffffff169050919050565b7fb3b3f3b703cd84ce352197dcff232b1b5d3cfb2025ce47cf04742d0651f1af8881565b6000600854905090565b60008061123d6112357f150214d74d59b7d1e90c73fc22ef3d991dd0a76b046543d4d80ab92d2a50328f898960405160200161121a93929190614cb5565b60405160208183030381529060405280519060200120611a11565b868686611a2b565b905061125a87828860405180602001604052806000815250611efa565b91505095945050505050565b600061127182611f1a565b9050919050565b60095481565b60006004600084815260200190815260200160002060030160008373ffffffffffffffffffffffffffffffffffffffff1673ffffffffffffffffffffffffffffffffffffffff16815260200190815260200160002060009054906101000a900460ff16905092915050565b600080600080600460008681526020019081526020016000209050806000015481600101548260020154935093509350509193909250565b60606040518060400160405280600181526020017f3100000000000000000000000000000000000000000000000000000000000000815250905090565b600080611369611c13565b905061138684828560405180602001604052806000815250611efa565b91505092915050565b60008061139a611c13565b90506113ed87828888888080601f016020809104026020016040519081016040528093929190818152602001838380828437600081840152601f19601f8201169050808301925050505050505087611a56565b91505095945050505050565b600080611404611c13565b905061145686828787878080601f016020809104026020016040519081016040528093929190818152602001838380828437600081840152601f19601f82011690508083019250505050505050611efa565b915050949350505050565b600061146f858585856120ee565b9050949350505050565b60085481565b60006064905090565b60006114958484846123f5565b90509392505050565b6000600554905090565b6114b0610a87565b73ffffffffffffffffffffffffffffffffffffffff166114ce611c13565b73ffffffffffffffffffffffffffffffffffffffff1614611524576040517f08c379a000000000000000000000000000000000000000000000000000000000815260040161151b906146b7565b60405180910390fd5b3073ffffffffffffffffffffffffffffffffffffffff16611543610a87565b73ffffffffffffffffffffffffffffffffffffffff1614611598576000611568611c1b565b6040516115769291906145f0565b604051809103902090505b8061158c6002611c28565b1461159657611581565b505b6115a18161249c565b50565b600080600660009054906101000a900473ffffffffffffffffffffffffffffffffffffffff1673ffffffffffffffffffffffffffffffffffffffff1663d45c443560076000868152602001908152602001600020546040518263ffffffff1660e01b81526004016116159190613d51565b602060405180830381865afa158015611632573d6000803e3d6000fd5b505050506040513d601f19601f8201168201806040525081019061165691906147df565b9050600181146116665780611669565b60005b915050919050565b600090565b600063bc197c8160e01b905095945050505050565b60006116e8600160008481526020019081526020016000206001016040518060200160405290816000820160009054906101000a900467ffffffffffffffff1667ffffffffffffffff1667ffffffffffffffff1681525050611eec565b67ffffffffffffffff169050919050565b611701610a87565b73ffffffffffffffffffffffffffffffffffffffff1661171f611c13565b73ffffffffffffffffffffffffffffffffffffffff1614611775576040517f08c379a000000000000000000000000000000000000000000000000000000000815260040161176c906146b7565b60405180910390fd5b3073ffffffffffffffffffffffffffffffffffffffff16611794610a87565b73ffffffffffffffffffffffffffffffffffffffff16146117e95760006117b9611c1b565b6040516117c79291906145f0565b604051809103902090505b806117dd6002611c28565b146117e7576117d2565b505b6118388483838080601f016020809104026020016040519081016040528093929190818152602001838380828437600081840152601f19601f820116905080830192505050505050508561253b565b5050505050565b6000848484846040516020016118589493929190614cec565b6040516020818303038152906040528051906020012060001c9050949350505050565b6000600660009054906101000a900473ffffffffffffffffffffffffffffffffffffffff16905090565b60606040518060400160405280602081526020017f737570706f72743d627261766f2671756f72756d3d666f722c6162737461696e815250905090565b7f150214d74d59b7d1e90c73fc22ef3d991dd0a76b046543d4d80ab92d2a50328f81565b600061191a838361191561256a565b6123f5565b905092915050565b600063f23a6e6160e01b905095945050505050565b600061194282612581565b9050919050565b7f000000000000000000000000000000000000000000000000000000000000000081565b6000600660009054906101000a900473ffffffffffffffffffffffffffffffffffffffff16905090565b60007f6e665ced000000000000000000000000000000000000000000000000000000007bffffffffffffffffffffffffffffffffffffffffffffffffffffffff1916827bffffffffffffffffffffffffffffffffffffffffffffffffffffffff19161480611a0a5750611a0982612648565b5b9050919050565b6000611a24611a1e6127ad565b836128c7565b9050919050565b6000806000611a3c878787876128fa565b91509150611a4981612a07565b8192505050949350505050565b60008060016000888152602001908152602001600020905060016007811115611a8257611a81613de7565b5b611a8b88611266565b6007811115611a9d57611a9c613de7565b5b14611add576040517f08c379a0000000000000000000000000000000000000000000000000000000008152600401611ad490614db8565b60405180910390fd5b6000611b3c87611b2c846000016040518060200160405290816000820160009054906101000a900467ffffffffffffffff1667ffffffffffffffff1667ffffffffffffffff1681525050611eec565b67ffffffffffffffff16866123f5565b9050611b4b8888888488612bdc565b600084511415611bae578673ffffffffffffffffffffffffffffffffffffffff167fb8e138887d0aa13bab447e82de9d5c1777041ecd21ca36ba824ff1e6c07ddda489888489604051611ba19493929190614dd8565b60405180910390a2611c05565b8673ffffffffffffffffffffffffffffffffffffffff167fe2babfbac5889a709b63bb7f598b324e08bc5a4fb9ec647fb3cbc9ec07eb87128988848989604051611bfc959493929190614e6e565b60405180910390a25b809250505095945050505050565b600033905090565b3660008036915091509091565b6000611c3382612de3565b15611c6a576040517f3db2a12a00000000000000000000000000000000000000000000000000000000815260040160405180910390fd5b60008260000160009054906101000a9004600f0b905082600101600082600f0b600f0b815260200190815260200160002054915082600101600082600f0b600f0b815260200190815260200160002060009055600181018360000160006101000a8154816fffffffffffffffffffffffffffffffff0219169083600f0b6fffffffffffffffffffffffffffffffff16021790555050919050565b611d0c61147f565b811115611d4e576040517f08c379a0000000000000000000000000000000000000000000000000000000008152600401611d4590614f67565b60405180910390fd5b60006005549050816005819055507f0553476bf02ef2726e8ce5ced78d63e26e602e4a2257b1f559418e24b46339978183604051611d8d929190614c8c565b60405180910390a15050565b3073ffffffffffffffffffffffffffffffffffffffff16611db8610a87565b73ffffffffffffffffffffffffffffffffffffffff1614611e765760005b8451811015611e74573073ffffffffffffffffffffffffffffffffffffffff16858281518110611e0957611e08614f87565b5b602002602001015173ffffffffffffffffffffffffffffffffffffffff161415611e6357611e62838281518110611e4357611e42614f87565b5b6020026020010151805190602001206002612e1890919063ffffffff16565b5b80611e6d90614fb6565b9050611dd6565b505b5050505050565b611e8a8585858585612e94565b5050505050565b3073ffffffffffffffffffffffffffffffffffffffff16611eb0610a87565b73ffffffffffffffffffffffffffffffffffffffff1614611ee557611ed56002612de3565b611ee457611ee36002612f32565b5b5b5050505050565b600081600001519050919050565b6000611f1085858585611f0b61256a565b611a56565b9050949350505050565b600080611f2683612fb3565b905060046007811115611f3c57611f3b613de7565b5b816007811115611f4f57611f4e613de7565b5b14611f5d57809150506120e9565b6000600760008581526020019081526020016000205490506000801b811415611f8a5781925050506120e9565b600660009054906101000a900473ffffffffffffffffffffffffffffffffffffffff1673ffffffffffffffffffffffffffffffffffffffff16632ab0f529826040518263ffffffff1660e01b8152600401611fe59190613d51565b602060405180830381865afa158015612002573d6000803e3d6000fd5b505050506040513d601f19601f82011682018060405250810190612026919061502b565b15612036576007925050506120e9565b600660009054906101000a900473ffffffffffffffffffffffffffffffffffffffff1673ffffffffffffffffffffffffffffffffffffffff1663584b153e826040518263ffffffff1660e01b81526004016120919190613d51565b602060405180830381865afa1580156120ae573d6000803e3d6000fd5b505050506040513d601f19601f820116820180604052508101906120d2919061502b565b156120e2576005925050506120e9565b6002925050505b919050565b60006120f8611671565b612115612103611c13565b6001436121109190615058565b611906565b1015612156576040517f08c379a000000000000000000000000000000000000000000000000000000000815260040161214d906150fe565b60405180910390fd5b600061216b868686868051906020012061183f565b905084518651146121b1576040517f08c379a00000000000000000000000000000000000000000000000000000000081526004016121a890615190565b60405180910390fd5b83518651146121f5576040517f08c379a00000000000000000000000000000000000000000000000000000000081526004016121ec90615190565b60405180910390fd5b6000865111612239576040517f08c379a0000000000000000000000000000000000000000000000000000000008152600401612230906151fc565b60405180910390fd5b6000600160008381526020019081526020016000209050612299816000016040518060200160405290816000820160009054906101000a900467ffffffffffffffff1667ffffffffffffffff1667ffffffffffffffff16815250506130c8565b6122d8576040517f08c379a00000000000000000000000000000000000000000000000000000000081526004016122cf9061528e565b60405180910390fd5b60006122ea6122e56111d2565b6130e2565b6122f3436130e2565b6122fd91906152c2565b9050600061231161230c610aa8565b6130e2565b8261231c91906152c2565b9050612334828460000161313990919063ffffffff16565b61234a818460010161313990919063ffffffff16565b7f7d84a6263ae0d98d3329bd7b46bb4e8d6f98cd35a7adb45c274c8b7fd5ebd5e084612374611c13565b8b8b8d5167ffffffffffffffff811115612391576123906135ff565b5b6040519080825280602002602001820160405280156123c457816020015b60608152602001906001900390816123af5790505b508c88888e6040516123de9998979695949392919061543d565b60405180910390a183945050505050949350505050565b60007f000000000000000000000000000000000000000000000000000000000000000073ffffffffffffffffffffffffffffffffffffffff16633a46b1a885856040518363ffffffff1660e01b81526004016124529291906154ed565b602060405180830381865afa15801561246f573d6000803e3d6000fd5b505050506040513d601f19601f8201168201806040525081019061249391906147df565b90509392505050565b7f08f74ea46ef7894f65eabfb5e6e695de773a000b47c529ab559178069b226401600660009054906101000a900473ffffffffffffffffffffffffffffffffffffffff16826040516124ef929190615516565b60405180910390a180600660006101000a81548173ffffffffffffffffffffffffffffffffffffffff021916908373ffffffffffffffffffffffffffffffffffffffff16021790555050565b6060612561848484604051806060016040528060298152602001615ca560299139613168565b90509392505050565b606060405180602001604052806000815250905090565b600061258b61147f565b61259361149e565b7f000000000000000000000000000000000000000000000000000000000000000073ffffffffffffffffffffffffffffffffffffffff16638e539e8c856040518263ffffffff1660e01b81526004016125ec9190613504565b602060405180830381865afa158015612609573d6000803e3d6000fd5b505050506040513d601f19601f8201168201806040525081019061262d91906147df565b612637919061553f565b61264191906155c8565b9050919050565b6000639a802a6d60e01b630342018160e01b635f398a1460e01b7f79dd796f000000000000000000000000000000000000000000000000000000001818187bffffffffffffffffffffffffffffffffffffffffffffffffffffffff1916827bffffffffffffffffffffffffffffffffffffffffffffffffffffffff1916148061272e57507f79dd796f000000000000000000000000000000000000000000000000000000007bffffffffffffffffffffffffffffffffffffffffffffffffffffffff1916827bffffffffffffffffffffffffffffffffffffffffffffffffffffffff1916145b8061279657507f4e2312e0000000000000000000000000000000000000000000000000000000007bffffffffffffffffffffffffffffffffffffffffffffffffffffffff1916827bffffffffffffffffffffffffffffffffffffffffffffffffffffffff1916145b806127a657506127a58261327c565b5b9050919050565b60007f000000000000000000000000000000000000000000000000000000000000000073ffffffffffffffffffffffffffffffffffffffff163073ffffffffffffffffffffffffffffffffffffffff1614801561282957507f000000000000000000000000000000000000000000000000000000000000000046145b15612856577f000000000000000000000000000000000000000000000000000000000000000090506128c4565b6128c17f00000000000000000000000000000000000000000000000000000000000000007f00000000000000000000000000000000000000000000000000000000000000007f00000000000000000000000000000000000000000000000000000000000000006132e6565b90505b90565b600082826040516020016128dc929190615671565b60405160208183030381529060405280519060200120905092915050565b6000807f7fffffffffffffffffffffffffffffff5d576e7357a4501ddfe92f46681b20a08360001c11156129355760006003915091506129fe565b601b8560ff161415801561294d5750601c8560ff1614155b1561295f5760006004915091506129fe565b60006001878787876040516000815260200160405260405161298494939291906156a8565b6020604051602081039080840390855afa1580156129a6573d6000803e3d6000fd5b505050602060405103519050600073ffffffffffffffffffffffffffffffffffffffff168173ffffffffffffffffffffffffffffffffffffffff1614156129f5576000600192509250506129fe565b80600092509250505b94509492505050565b60006004811115612a1b57612a1a613de7565b5b816004811115612a2e57612a2d613de7565b5b1415612a3957612bd9565b60016004811115612a4d57612a4c613de7565b5b816004811115612a6057612a5f613de7565b5b1415612aa1576040517f08c379a0000000000000000000000000000000000000000000000000000000008152600401612a9890615739565b60405180910390fd5b60026004811115612ab557612ab4613de7565b5b816004811115612ac857612ac7613de7565b5b1415612b09576040517f08c379a0000000000000000000000000000000000000000000000000000000008152600401612b00906157a5565b60405180910390fd5b60036004811115612b1d57612b1c613de7565b5b816004811115612b3057612b2f613de7565b5b1415612b71576040517f08c379a0000000000000000000000000000000000000000000000000000000008152600401612b6890615837565b60405180910390fd5b600480811115612b8457612b83613de7565b5b816004811115612b9757612b96613de7565b5b1415612bd8576040517f08c379a0000000000000000000000000000000000000000000000000000000008152600401612bcf906158c9565b60405180910390fd5b5b50565b60006004600087815260200190815260200160002090508060030160008673ffffffffffffffffffffffffffffffffffffffff1673ffffffffffffffffffffffffffffffffffffffff16815260200190815260200160002060009054906101000a900460ff1615612c82576040517f08c379a0000000000000000000000000000000000000000000000000000000008152600401612c799061595b565b60405180910390fd5b60018160030160008773ffffffffffffffffffffffffffffffffffffffff1673ffffffffffffffffffffffffffffffffffffffff16815260200190815260200160002060006101000a81548160ff02191690831515021790555060006002811115612cf057612cef613de7565b5b60ff168460ff161415612d1d5782816000016000828254612d119190614c36565b92505081905550612ddb565b60016002811115612d3157612d30613de7565b5b60ff168460ff161415612d5e5782816001016000828254612d529190614c36565b92505081905550612dda565b600280811115612d7157612d70613de7565b5b60ff168460ff161415612d9e5782816002016000828254612d929190614c36565b92505081905550612dd9565b6040517f08c379a0000000000000000000000000000000000000000000000000000000008152600401612dd0906159ed565b60405180910390fd5b5b5b505050505050565b60008160000160009054906101000a9004600f0b600f0b8260000160109054906101000a9004600f0b600f0b13159050919050565b60008260000160109054906101000a9004600f0b90508183600101600083600f0b600f0b815260200190815260200160002081905550600181018360000160106101000a8154816fffffffffffffffffffffffffffffffff0219169083600f0b6fffffffffffffffffffffffffffffffff160217905550505050565b600660009054906101000a900473ffffffffffffffffffffffffffffffffffffffff1673ffffffffffffffffffffffffffffffffffffffff1663e38335e5348686866000876040518763ffffffff1660e01b8152600401612ef9959493929190614ae7565b6000604051808303818588803b158015612f1257600080fd5b505af1158015612f26573d6000803e3d6000fd5b50505050505050505050565b60008160000160006101000a8154816fffffffffffffffffffffffffffffffff0219169083600f0b6fffffffffffffffffffffffffffffffff16021790555060008160000160106101000a8154816fffffffffffffffffffffffffffffffff0219169083600f0b6fffffffffffffffffffffffffffffffff16021790555050565b6000806001600084815260200190815260200160002090508060020160009054906101000a900460ff1615612fec5760079150506130c3565b8060020160019054906101000a900460ff161561300d5760029150506130c3565b600061301884611140565b9050600081141561305e576040517f08c379a000000000000000000000000000000000000000000000000000000000815260040161305590615a59565b60405180910390fd5b438110613070576000925050506130c3565b600061307b8561168b565b905043811061309057600193505050506130c3565b61309985613320565b80156130aa57506130a985613367565b5b156130bb57600493505050506130c3565b600393505050505b919050565b600080826000015167ffffffffffffffff16149050919050565b600067ffffffffffffffff8016821115613131576040517f08c379a000000000000000000000000000000000000000000000000000000000815260040161312890615aeb565b60405180910390fd5b819050919050565b808260000160006101000a81548167ffffffffffffffff021916908367ffffffffffffffff1602179055505050565b6060824710156131ad576040517f08c379a00000000000000000000000000000000000000000000000000000000081526004016131a490615b7d565b60405180910390fd5b6131b685613392565b6131f5576040517f08c379a00000000000000000000000000000000000000000000000000000000081526004016131ec90615be9565b60405180910390fd5b6000808673ffffffffffffffffffffffffffffffffffffffff16858760405161321e9190615c3a565b60006040518083038185875af1925050503d806000811461325b576040519150601f19603f3d011682016040523d82523d6000602084013e613260565b606091505b50915091506132708282866133b5565b92505050949350505050565b60007f01ffc9a7000000000000000000000000000000000000000000000000000000007bffffffffffffffffffffffffffffffffffffffffffffffffffffffff1916827bffffffffffffffffffffffffffffffffffffffffffffffffffffffff1916149050919050565b60008383834630604051602001613301959493929190615c51565b6040516020818303038152906040528051906020012090509392505050565b6000806004600084815260200190815260200160002090508060020154816001015461334c9190614c36565b61335d61335885611140565b611937565b1115915050919050565b6000806004600084815260200190815260200160002090508060000154816001015411915050919050565b6000808273ffffffffffffffffffffffffffffffffffffffff163b119050919050565b606083156133c557829050613415565b6000835111156133d85782518084602001fd5b816040517f08c379a000000000000000000000000000000000000000000000000000000000815260040161340c91906138f3565b60405180910390fd5b9392505050565b6000604051905090565b600080fd5b600080fd5b60007fffffffff0000000000000000000000000000000000000000000000000000000082169050919050565b61346581613430565b811461347057600080fd5b50565b6000813590506134828161345c565b92915050565b60006020828403121561349e5761349d613426565b5b60006134ac84828501613473565b91505092915050565b60008115159050919050565b6134ca816134b5565b82525050565b60006020820190506134e560008301846134c1565b92915050565b6000819050919050565b6134fe816134eb565b82525050565b600060208201905061351960008301846134f5565b92915050565b613528816134eb565b811461353357600080fd5b50565b6000813590506135458161351f565b92915050565b600060ff82169050919050565b6135618161354b565b811461356c57600080fd5b50565b60008135905061357e81613558565b92915050565b600080fd5b600080fd5b600080fd5b60008083601f8401126135a9576135a8613584565b5b8235905067ffffffffffffffff8111156135c6576135c5613589565b5b6020830191508360018202830111156135e2576135e161358e565b5b9250929050565b600080fd5b6000601f19601f8301169050919050565b7f4e487b7100000000000000000000000000000000000000000000000000000000600052604160045260246000fd5b613637826135ee565b810181811067ffffffffffffffff82111715613656576136556135ff565b5b80604052505050565b600061366961341c565b9050613675828261362e565b919050565b600067ffffffffffffffff821115613695576136946135ff565b5b61369e826135ee565b9050602081019050919050565b82818337600083830152505050565b60006136cd6136c88461367a565b61365f565b9050828152602081018484840111156136e9576136e86135e9565b5b6136f48482856136ab565b509392505050565b600082601f83011261371157613710613584565b5b81356137218482602086016136ba565b91505092915050565b6000819050919050565b61373d8161372a565b811461374857600080fd5b50565b60008135905061375a81613734565b92915050565b60008060008060008060008060e0898b0312156137805761377f613426565b5b600061378e8b828c01613536565b985050602061379f8b828c0161356f565b975050604089013567ffffffffffffffff8111156137c0576137bf61342b565b5b6137cc8b828c01613593565b9650965050606089013567ffffffffffffffff8111156137ef576137ee61342b565b5b6137fb8b828c016136fc565b945050608061380c8b828c0161356f565b93505060a061381d8b828c0161374b565b92505060c061382e8b828c0161374b565b9150509295985092959890939650565b60006020828403121561385457613853613426565b5b600061386284828501613536565b91505092915050565b600081519050919050565b600082825260208201905092915050565b60005b838110156138a557808201518184015260208101905061388a565b838111156138b4576000848401525b50505050565b60006138c58261386b565b6138cf8185613876565b93506138df818560208601613887565b6138e8816135ee565b840191505092915050565b6000602082019050818103600083015261390d81846138ba565b905092915050565b600073ffffffffffffffffffffffffffffffffffffffff82169050919050565b600061394082613915565b9050919050565b61395081613935565b811461395b57600080fd5b50565b60008135905061396d81613947565b92915050565b6000806000806080858703121561398d5761398c613426565b5b600061399b8782880161395e565b94505060206139ac8782880161395e565b93505060406139bd87828801613536565b925050606085013567ffffffffffffffff8111156139de576139dd61342b565b5b6139ea878288016136fc565b91505092959194509250565b6139ff81613430565b82525050565b6000602082019050613a1a60008301846139f6565b92915050565b600067ffffffffffffffff821115613a3b57613a3a6135ff565b5b602082029050602081019050919050565b6000613a5f613a5a84613a20565b61365f565b90508083825260208201905060208402830185811115613a8257613a8161358e565b5b835b81811015613aab5780613a97888261395e565b845260208401935050602081019050613a84565b5050509392505050565b600082601f830112613aca57613ac9613584565b5b8135613ada848260208601613a4c565b91505092915050565b600067ffffffffffffffff821115613afe57613afd6135ff565b5b602082029050602081019050919050565b6000613b22613b1d84613ae3565b61365f565b90508083825260208201905060208402830185811115613b4557613b4461358e565b5b835b81811015613b6e5780613b5a8882613536565b845260208401935050602081019050613b47565b5050509392505050565b600082601f830112613b8d57613b8c613584565b5b8135613b9d848260208601613b0f565b91505092915050565b600067ffffffffffffffff821115613bc157613bc06135ff565b5b602082029050602081019050919050565b6000613be5613be084613ba6565b61365f565b90508083825260208201905060208402830185811115613c0857613c0761358e565b5b835b81811015613c4f57803567ffffffffffffffff811115613c2d57613c2c613584565b5b808601613c3a89826136fc565b85526020850194505050602081019050613c0a565b5050509392505050565b600082601f830112613c6e57613c6d613584565b5b8135613c7e848260208601613bd2565b91505092915050565b60008060008060808587031215613ca157613ca0613426565b5b600085013567ffffffffffffffff811115613cbf57613cbe61342b565b5b613ccb87828801613ab5565b945050602085013567ffffffffffffffff811115613cec57613ceb61342b565b5b613cf887828801613b78565b935050604085013567ffffffffffffffff811115613d1957613d1861342b565b5b613d2587828801613c59565b9250506060613d368782880161374b565b91505092959194509250565b613d4b8161372a565b82525050565b6000602082019050613d666000830184613d42565b92915050565b600080600080600060a08688031215613d8857613d87613426565b5b6000613d9688828901613536565b9550506020613da78882890161356f565b9450506040613db88882890161356f565b9350506060613dc98882890161374b565b9250506080613dda8882890161374b565b9150509295509295909350565b7f4e487b7100000000000000000000000000000000000000000000000000000000600052602160045260246000fd5b60088110613e2757613e26613de7565b5b50565b6000819050613e3882613e16565b919050565b6000613e4882613e2a565b9050919050565b613e5881613e3d565b82525050565b6000602082019050613e736000830184613e4f565b92915050565b60008060408385031215613e9057613e8f613426565b5b6000613e9e85828601613536565b9250506020613eaf8582860161395e565b9150509250929050565b6000606082019050613ece60008301866134f5565b613edb60208301856134f5565b613ee860408301846134f5565b949350505050565b60008060408385031215613f0757613f06613426565b5b6000613f1585828601613536565b9250506020613f268582860161356f565b9150509250929050565b600080600080600060808688031215613f4c57613f4b613426565b5b6000613f5a88828901613536565b9550506020613f6b8882890161356f565b945050604086013567ffffffffffffffff811115613f8c57613f8b61342b565b5b613f9888828901613593565b9350935050606086013567ffffffffffffffff811115613fbb57613fba61342b565b5b613fc7888289016136fc565b9150509295509295909350565b60008060008060608587031215613fee57613fed613426565b5b6000613ffc87828801613536565b945050602061400d8782880161356f565b935050604085013567ffffffffffffffff81111561402e5761402d61342b565b5b61403a87828801613593565b925092505092959194509250565b600067ffffffffffffffff821115614063576140626135ff565b5b61406c826135ee565b9050602081019050919050565b600061408c61408784614048565b61365f565b9050828152602081018484840111156140a8576140a76135e9565b5b6140b38482856136ab565b509392505050565b600082601f8301126140d0576140cf613584565b5b81356140e0848260208601614079565b91505092915050565b6000806000806080858703121561410357614102613426565b5b600085013567ffffffffffffffff8111156141215761412061342b565b5b61412d87828801613ab5565b945050602085013567ffffffffffffffff81111561414e5761414d61342b565b5b61415a87828801613b78565b935050604085013567ffffffffffffffff81111561417b5761417a61342b565b5b61418787828801613c59565b925050606085013567ffffffffffffffff8111156141a8576141a761342b565b5b6141b4878288016140bb565b91505092959194509250565b6000806000606084860312156141d9576141d8613426565b5b60006141e78682870161395e565b93505060206141f886828701613536565b925050604084013567ffffffffffffffff8111156142195761421861342b565b5b614225868287016136fc565b9150509250925092565b600061423a82613915565b9050919050565b600061424c8261422f565b9050919050565b61425c81614241565b811461426757600080fd5b50565b60008135905061427981614253565b92915050565b60006020828403121561429557614294613426565b5b60006142a38482850161426a565b91505092915050565b600080600080600060a086880312156142c8576142c7613426565b5b60006142d68882890161395e565b95505060206142e78882890161395e565b945050604086013567ffffffffffffffff8111156143085761430761342b565b5b61431488828901613b78565b935050606086013567ffffffffffffffff8111156143355761433461342b565b5b61434188828901613b78565b925050608086013567ffffffffffffffff8111156143625761436161342b565b5b61436e888289016136fc565b9150509295509295909350565b60008083601f84011261439157614390613584565b5b8235905067ffffffffffffffff8111156143ae576143ad613589565b5b6020830191508360018202830111156143ca576143c961358e565b5b9250929050565b600080600080606085870312156143eb576143ea613426565b5b60006143f98782880161395e565b945050602061440a87828801613536565b935050604085013567ffffffffffffffff81111561442b5761442a61342b565b5b6144378782880161437b565b925092505092959194509250565b61444e81613935565b82525050565b60006020820190506144696000830184614445565b92915050565b6000806040838503121561448657614485613426565b5b60006144948582860161395e565b92505060206144a585828601613536565b9150509250929050565b600080600080600060a086880312156144cb576144ca613426565b5b60006144d98882890161395e565b95505060206144ea8882890161395e565b94505060406144fb88828901613536565b935050606061450c88828901613536565b925050608086013567ffffffffffffffff81111561452d5761452c61342b565b5b614539888289016136fc565b9150509295509295909350565b6000819050919050565b600061456b61456661456184613915565b614546565b613915565b9050919050565b600061457d82614550565b9050919050565b600061458f82614572565b9050919050565b61459f81614584565b82525050565b60006020820190506145ba6000830184614596565b92915050565b600081905092915050565b60006145d783856145c0565b93506145e48385846136ab565b82840190509392505050565b60006145fd8284866145cb565b91508190509392505050565b6146128161354b565b82525050565b600060a08201905061462d6000830188613d42565b61463a60208301876134f5565b6146476040830186614609565b6146546060830185613d42565b6146616080830184613d42565b9695505050505050565b7f476f7665726e6f723a206f6e6c79476f7665726e616e63650000000000000000600082015250565b60006146a1601883613876565b91506146ac8261466b565b602082019050919050565b600060208201905081810360008301526146d081614694565b9050919050565b7f4e487b7100000000000000000000000000000000000000000000000000000000600052602260045260246000fd5b6000600282049050600182168061471e57607f821691505b60208210811415614732576147316146d7565b5b50919050565b7f476f7665726e6f723a2070726f706f73616c206e6f742073756363657373667560008201527f6c00000000000000000000000000000000000000000000000000000000000000602082015250565b6000614794602183613876565b915061479f82614738565b604082019050919050565b600060208201905081810360008301526147c381614787565b9050919050565b6000815190506147d98161351f565b92915050565b6000602082840312156147f5576147f4613426565b5b6000614803848285016147ca565b91505092915050565b600081519050919050565b600082825260208201905092915050565b6000819050602082019050919050565b61484181613935565b82525050565b60006148538383614838565b60208301905092915050565b6000602082019050919050565b60006148778261480c565b6148818185614817565b935061488c83614828565b8060005b838110156148bd5781516148a48882614847565b97506148af8361485f565b925050600181019050614890565b5085935050505092915050565b600081519050919050565b600082825260208201905092915050565b6000819050602082019050919050565b6148ff816134eb565b82525050565b600061491183836148f6565b60208301905092915050565b6000602082019050919050565b6000614935826148ca565b61493f81856148d5565b935061494a836148e6565b8060005b8381101561497b5781516149628882614905565b975061496d8361491d565b92505060018101905061494e565b5085935050505092915050565b600081519050919050565b600082825260208201905092915050565b6000819050602082019050919050565b600081519050919050565b600082825260208201905092915050565b60006149db826149b4565b6149e581856149bf565b93506149f5818560208601613887565b6149fe816135ee565b840191505092915050565b6000614a1583836149d0565b905092915050565b6000602082019050919050565b6000614a3582614988565b614a3f8185614993565b935083602082028501614a51856149a4565b8060005b85811015614a8d5784840389528151614a6e8582614a09565b9450614a7983614a1d565b925060208a01995050600181019050614a55565b50829750879550505050505092915050565b6000819050919050565b60008160001b9050919050565b6000614ad1614acc614ac784614a9f565b614aa9565b61372a565b9050919050565b614ae181614ab6565b82525050565b600060a0820190508181036000830152614b01818861486c565b90508181036020830152614b15818761492a565b90508181036040830152614b298186614a2a565b9050614b386060830185614ad8565b614b456080830184613d42565b9695505050505050565b600081519050614b5e81613734565b92915050565b600060208284031215614b7a57614b79613426565b5b6000614b8884828501614b4f565b91505092915050565b600060c0820190508181036000830152614bab818961486c565b90508181036020830152614bbf818861492a565b90508181036040830152614bd38187614a2a565b9050614be26060830186614ad8565b614bef6080830185613d42565b614bfc60a08301846134f5565b979650505050505050565b7f4e487b7100000000000000000000000000000000000000000000000000000000600052601160045260246000fd5b6000614c41826134eb565b9150614c4c836134eb565b9250827fffffffffffffffffffffffffffffffffffffffffffffffffffffffffffffffff03821115614c8157614c80614c07565b5b828201905092915050565b6000604082019050614ca160008301856134f5565b614cae60208301846134f5565b9392505050565b6000606082019050614cca6000830186613d42565b614cd760208301856134f5565b614ce46040830184614609565b949350505050565b60006080820190508181036000830152614d06818761486c565b90508181036020830152614d1a818661492a565b90508181036040830152614d2e8185614a2a565b9050614d3d6060830184613d42565b95945050505050565b7f476f7665726e6f723a20766f7465206e6f742063757272656e746c792061637460008201527f6976650000000000000000000000000000000000000000000000000000000000602082015250565b6000614da2602383613876565b9150614dad82614d46565b604082019050919050565b60006020820190508181036000830152614dd181614d95565b9050919050565b6000608082019050614ded60008301876134f5565b614dfa6020830186614609565b614e0760408301856134f5565b8181036060830152614e1981846138ba565b905095945050505050565b600082825260208201905092915050565b6000614e40826149b4565b614e4a8185614e24565b9350614e5a818560208601613887565b614e63816135ee565b840191505092915050565b600060a082019050614e8360008301886134f5565b614e906020830187614609565b614e9d60408301866134f5565b8181036060830152614eaf81856138ba565b90508181036080830152614ec38184614e35565b90509695505050505050565b7f476f7665726e6f72566f74657351756f72756d4672616374696f6e3a2071756f60008201527f72756d4e756d657261746f72206f7665722071756f72756d44656e6f6d696e6160208201527f746f720000000000000000000000000000000000000000000000000000000000604082015250565b6000614f51604383613876565b9150614f5c82614ecf565b606082019050919050565b60006020820190508181036000830152614f8081614f44565b9050919050565b7f4e487b7100000000000000000000000000000000000000000000000000000000600052603260045260246000fd5b6000614fc1826134eb565b91507fffffffffffffffffffffffffffffffffffffffffffffffffffffffffffffffff821415614ff457614ff3614c07565b5b600182019050919050565b615008816134b5565b811461501357600080fd5b50565b60008151905061502581614fff565b92915050565b60006020828403121561504157615040613426565b5b600061504f84828501615016565b91505092915050565b6000615063826134eb565b915061506e836134eb565b92508282101561508157615080614c07565b5b828203905092915050565b7f476f7665726e6f723a2070726f706f73657220766f7465732062656c6f77207060008201527f726f706f73616c207468726573686f6c64000000000000000000000000000000602082015250565b60006150e8603183613876565b91506150f38261508c565b604082019050919050565b60006020820190508181036000830152615117816150db565b9050919050565b7f476f7665726e6f723a20696e76616c69642070726f706f73616c206c656e677460008201527f6800000000000000000000000000000000000000000000000000000000000000602082015250565b600061517a602183613876565b91506151858261511e565b604082019050919050565b600060208201905081810360008301526151a98161516d565b9050919050565b7f476f7665726e6f723a20656d7074792070726f706f73616c0000000000000000600082015250565b60006151e6601883613876565b91506151f1826151b0565b602082019050919050565b60006020820190508181036000830152615215816151d9565b9050919050565b7f476f7665726e6f723a2070726f706f73616c20616c726561647920657869737460008201527f7300000000000000000000000000000000000000000000000000000000000000602082015250565b6000615278602183613876565b91506152838261521c565b604082019050919050565b600060208201905081810360008301526152a78161526b565b9050919050565b600067ffffffffffffffff82169050919050565b60006152cd826152ae565b91506152d8836152ae565b92508267ffffffffffffffff038211156152f5576152f4614c07565b5b828201905092915050565b600081519050919050565b600082825260208201905092915050565b6000819050602082019050919050565b600082825260208201905092915050565b60006153488261386b565b615352818561532c565b9350615362818560208601613887565b61536b816135ee565b840191505092915050565b6000615382838361533d565b905092915050565b6000602082019050919050565b60006153a282615300565b6153ac818561530b565b9350836020820285016153be8561531c565b8060005b858110156153fa57848403895281516153db8582615376565b94506153e68361538a565b925060208a019950506001810190506153c2565b50829750879550505050505092915050565b600061542761542261541d846152ae565b614546565b6134eb565b9050919050565b6154378161540c565b82525050565b600061012082019050615453600083018c6134f5565b615460602083018b614445565b8181036040830152615472818a61486c565b90508181036060830152615486818961492a565b9050818103608083015261549a8188615397565b905081810360a08301526154ae8187614a2a565b90506154bd60c083018661542e565b6154ca60e083018561542e565b8181036101008301526154dd81846138ba565b90509a9950505050505050505050565b60006040820190506155026000830185614445565b61550f60208301846134f5565b9392505050565b600060408201905061552b6000830185614445565b6155386020830184614445565b9392505050565b600061554a826134eb565b9150615555836134eb565b9250817fffffffffffffffffffffffffffffffffffffffffffffffffffffffffffffffff048311821515161561558e5761558d614c07565b5b828202905092915050565b7f4e487b7100000000000000000000000000000000000000000000000000000000600052601260045260246000fd5b60006155d3826134eb565b91506155de836134eb565b9250826155ee576155ed615599565b5b828204905092915050565b600081905092915050565b7f1901000000000000000000000000000000000000000000000000000000000000600082015250565b600061563a6002836155f9565b915061564582615604565b600282019050919050565b6000819050919050565b61566b6156668261372a565b615650565b82525050565b600061567c8261562d565b9150615688828561565a565b602082019150615698828461565a565b6020820191508190509392505050565b60006080820190506156bd6000830187613d42565b6156ca6020830186614609565b6156d76040830185613d42565b6156e46060830184613d42565b95945050505050565b7f45434453413a20696e76616c6964207369676e61747572650000000000000000600082015250565b6000615723601883613876565b915061572e826156ed565b602082019050919050565b6000602082019050818103600083015261575281615716565b9050919050565b7f45434453413a20696e76616c6964207369676e6174757265206c656e67746800600082015250565b600061578f601f83613876565b915061579a82615759565b602082019050919050565b600060208201905081810360008301526157be81615782565b9050919050565b7f45434453413a20696e76616c6964207369676e6174757265202773272076616c60008201527f7565000000000000000000000000000000000000000000000000000000000000602082015250565b6000615821602283613876565b915061582c826157c5565b604082019050919050565b6000602082019050818103600083015261585081615814565b9050919050565b7f45434453413a20696e76616c6964207369676e6174757265202776272076616c60008201527f7565000000000000000000000000000000000000000000000000000000000000602082015250565b60006158b3602283613876565b91506158be82615857565b604082019050919050565b600060208201905081810360008301526158e2816158a6565b9050919050565b7f476f7665726e6f72566f74696e6753696d706c653a20766f746520616c72656160008201527f6479206361737400000000000000000000000000000000000000000000000000602082015250565b6000615945602783613876565b9150615950826158e9565b604082019050919050565b6000602082019050818103600083015261597481615938565b9050919050565b7f476f7665726e6f72566f74696e6753696d706c653a20696e76616c696420766160008201527f6c756520666f7220656e756d20566f7465547970650000000000000000000000602082015250565b60006159d7603583613876565b91506159e28261597b565b604082019050919050565b60006020820190508181036000830152615a06816159ca565b9050919050565b7f476f7665726e6f723a20756e6b6e6f776e2070726f706f73616c206964000000600082015250565b6000615a43601d83613876565b9150615a4e82615a0d565b602082019050919050565b60006020820190508181036000830152615a7281615a36565b9050919050565b7f53616665436173743a2076616c756520646f65736e27742066697420696e203660008201527f3420626974730000000000000000000000000000000000000000000000000000602082015250565b6000615ad5602683613876565b9150615ae082615a79565b604082019050919050565b60006020820190508181036000830152615b0481615ac8565b9050919050565b7f416464726573733a20696e73756666696369656e742062616c616e636520666f60008201527f722063616c6c0000000000000000000000000000000000000000000000000000602082015250565b6000615b67602683613876565b9150615b7282615b0b565b604082019050919050565b60006020820190508181036000830152615b9681615b5a565b9050919050565b7f416464726573733a2063616c6c20746f206e6f6e2d636f6e7472616374000000600082015250565b6000615bd3601d83613876565b9150615bde82615b9d565b602082019050919050565b60006020820190508181036000830152615c0281615bc6565b9050919050565b6000615c14826149b4565b615c1e81856145c0565b9350615c2e818560208601613887565b80840191505092915050565b6000615c468284615c09565b915081905092915050565b600060a082019050615c666000830188613d42565b615c736020830187613d42565b615c806040830186613d42565b615c8d60608301856134f5565b615c9a6080830184614445565b969550505050505056fe416464726573733a206c6f772d6c6576656c2063616c6c20776974682076616c7565206661696c6564a26469706673582212203edb07df6a91dd1906720effd4c5976a887b8ec9e9348fc1b97a9c11968b638b64736f6c634300080c0033",
  "immutableReferences": {
    "3596": [
      {
        "length": 32,
        "start": 6475
      },
      {
        "length": 32,
        "start": 9209
      },
      {
        "length": 32,
        "start": 9621
      }
    ],
    "6881": [
      {
        "length": 32,
        "start": 10288
      }
    ],
    "6883": [
      {
        "length": 32,
        "start": 10247
      }
    ],
    "6885": [
      {
        "length": 32,
        "start": 10161
      }
    ],
    "6887": [
      {
        "length": 32,
        "start": 10364
      }
    ],
    "6889": [
      {
        "length": 32,
        "start": 10397
      }
    ],
    "6891": [
      {
        "length": 32,
        "start": 10331
      }
    ]
  },
  "source": "// SPDX-License-Identifier: ISC\npragma solidity ^0.8.12;\n\nimport \"./Token.sol\";\nimport \"@openzeppelin/contracts/governance/Governor.sol\";\nimport \"@openzeppelin/contracts/governance/extensions/GovernorCountingSimple.sol\";\nimport \"@openzeppelin/contracts/governance/extensions/GovernorVotes.sol\";\nimport \"@openzeppelin/contracts/governance/extensions/GovernorVotesQuorumFraction.sol\";\nimport \"@openzeppelin/contracts/governance/extensions/GovernorTimelockControl.sol\";\n\ncontract Governance is \n    Governor,\n    GovernorCountingSimple,\n    GovernorVotes,\n    GovernorVotesQuorumFraction,\n    GovernorTimelockControl\n{\n\n    uint256 public votingDelay_;\n    uint256 public votingPeriod_;\n\n    constructor(\n        string memory _name, \n        ERC721Votes _token, \n        TimelockController _timelock,\n        uint256 _quorum,\n        uint256 _votingDelay,\n        uint256 _votingPeriod\n    ) \n        Governor(_name)\n        GovernorVotes(_token)\n        GovernorVotesQuorumFraction(_quorum)\n        GovernorTimelockControl(_timelock)\n        \n    {\n        votingDelay_ = _votingDelay;\n        votingPeriod_ = _votingPeriod;\n    }\n\n    function votingDelay() public view override returns(uint256){\n        return votingDelay_;\n    }\n\n    function votingPeriod() public view override returns(uint256){\n        return votingPeriod_;\n    }\n\n    function quorum(uint256 blockNumber)\n        public\n        view\n        override(IGovernor, GovernorVotesQuorumFraction)\n        returns (uint256)\n    {\n        return super.quorum(blockNumber);\n    }\n\n    function state(uint256 proposalId)\n        public\n        view\n        override(Governor, GovernorTimelockControl)\n        returns (ProposalState)\n    {\n        return super.state(proposalId);\n    }\n\n    function propose(address[] memory targets, uint256[] memory values, bytes[] memory calldatas, string memory description)\n        public\n        override(Governor, IGovernor)\n        returns (uint256)\n    {\n        return super.propose(targets, values, calldatas, description);\n    }\n\n    function _execute(uint256 proposalId, address[] memory targets, uint256[] memory values, bytes[] memory calldatas, bytes32 descriptionHash)\n        internal\n        override(Governor, GovernorTimelockControl)\n    {\n        super._execute(proposalId, targets, values, calldatas, descriptionHash);\n    }\n\n    function _cancel(address[] memory targets, uint256[] memory values, bytes[] memory calldatas, bytes32 descriptionHash)\n        internal\n        override(Governor, GovernorTimelockControl)\n        returns (uint256)\n    {\n        return super._cancel(targets, values, calldatas, descriptionHash);\n    }\n\n    function _executor()\n        internal\n        view\n        override(Governor, GovernorTimelockControl)\n        returns (address)\n    {\n        return super._executor();\n    }\n\n    function supportsInterface(bytes4 interfaceId)\n        public\n        view\n        override(Governor, GovernorTimelockControl)\n        returns (bool)\n    {\n        return super.supportsInterface(interfaceId);\n    }\n        \n\n}",
  "sourcePath": "/Users/ybotwe/Desktop/Gyidi/Gyidi backend/DAB/contracts/Governance.sol",
  "compiler": {
    "name": "solc",
    "version": "0.8.12+commit.f00d7308.Emscripten.clang"
  },
  "schemaVersion": "3.4.6",
  "updatedAt": "2022-05-21T21:54:24.657Z",
  "networkType": "ethereum",
  "devdoc": {
    "errors": {
      "Empty()": [
        {
          "details": "An operation (e.g. {front}) couldn't be completed due to the queue being empty."
        }
      ]
    },
    "kind": "dev",
    "methods": {
      "COUNTING_MODE()": {
        "details": "See {IGovernor-COUNTING_MODE}."
      },
      "castVote(uint256,uint8)": {
        "details": "See {IGovernor-castVote}."
      },
      "castVoteBySig(uint256,uint8,uint8,bytes32,bytes32)": {
        "details": "See {IGovernor-castVoteBySig}."
      },
      "castVoteWithReason(uint256,uint8,string)": {
        "details": "See {IGovernor-castVoteWithReason}."
      },
      "castVoteWithReasonAndParams(uint256,uint8,string,bytes)": {
        "details": "See {IGovernor-castVoteWithReasonAndParams}."
      },
      "castVoteWithReasonAndParamsBySig(uint256,uint8,string,bytes,uint8,bytes32,bytes32)": {
        "details": "See {IGovernor-castVoteWithReasonAndParamsBySig}."
      },
      "execute(address[],uint256[],bytes[],bytes32)": {
        "details": "See {IGovernor-execute}."
      },
      "getVotes(address,uint256)": {
        "details": "See {IGovernor-getVotes}."
      },
      "getVotesWithParams(address,uint256,bytes)": {
        "details": "See {IGovernor-getVotesWithParams}."
      },
      "hasVoted(uint256,address)": {
        "details": "See {IGovernor-hasVoted}."
      },
      "hashProposal(address[],uint256[],bytes[],bytes32)": {
        "details": "See {IGovernor-hashProposal}. The proposal id is produced by hashing the RLC encoded `targets` array, the `values` array, the `calldatas` array and the descriptionHash (bytes32 which itself is the keccak256 hash of the description string). This proposal id can be produced from the proposal data which is part of the {ProposalCreated} event. It can even be computed in advance, before the proposal is submitted. Note that the chainId and the governor address are not part of the proposal id computation. Consequently, the same proposal (with same operation and same description) will have the same id if submitted on multiple governors across multiple networks. This also means that in order to execute the same operation twice (on the same governor) the proposer will have to change the description in order to avoid proposal id conflicts."
      },
      "name()": {
        "details": "See {IGovernor-name}."
      },
      "onERC1155BatchReceived(address,address,uint256[],uint256[],bytes)": {
        "details": "See {IERC1155Receiver-onERC1155BatchReceived}."
      },
      "onERC1155Received(address,address,uint256,uint256,bytes)": {
        "details": "See {IERC1155Receiver-onERC1155Received}."
      },
      "onERC721Received(address,address,uint256,bytes)": {
        "details": "See {IERC721Receiver-onERC721Received}."
      },
      "proposalDeadline(uint256)": {
        "details": "See {IGovernor-proposalDeadline}."
      },
      "proposalEta(uint256)": {
        "details": "Public accessor to check the eta of a queued proposal"
      },
      "proposalSnapshot(uint256)": {
        "details": "See {IGovernor-proposalSnapshot}."
      },
      "proposalThreshold()": {
        "details": "Part of the Governor Bravo's interface: _\"The number of votes required in order for a voter to become a proposer\"_."
      },
      "proposalVotes(uint256)": {
        "details": "Accessor to the internal vote counts."
      },
      "queue(address[],uint256[],bytes[],bytes32)": {
        "details": "Function to queue a proposal to the timelock."
      },
      "quorumDenominator()": {
        "details": "Returns the quorum denominator. Defaults to 100, but may be overridden."
      },
      "quorumNumerator()": {
        "details": "Returns the current quorum numerator. See {quorumDenominator}."
      },
      "relay(address,uint256,bytes)": {
        "details": "Relays a transaction or function call to an arbitrary target. In cases where the governance executor is some contract other than the governor itself, like when using a timelock, this function can be invoked in a governance proposal to recover tokens or Ether that was sent to the governor contract by mistake. Note that if the executor is simply the governor itself, use of `relay` is redundant."
      },
      "timelock()": {
        "details": "Public accessor to check the address of the timelock"
      },
      "updateQuorumNumerator(uint256)": {
        "details": "Changes the quorum numerator. Emits a {QuorumNumeratorUpdated} event. Requirements: - Must be called through a governance proposal. - New numerator must be smaller or equal to the denominator."
      },
      "updateTimelock(address)": {
        "details": "Public endpoint to update the underlying timelock instance. Restricted to the timelock itself, so updates must be proposed, scheduled, and executed through governance proposals. CAUTION: It is not recommended to change the timelock while there are other queued governance proposals."
      },
      "version()": {
        "details": "See {IGovernor-version}."
      },
      "votingDelay()": {
        "details": "Delay, in number of block, between the proposal is created and the vote starts. This can be increassed to leave time for users to buy voting power, of delegate it, before the voting of a proposal starts."
      },
      "votingPeriod()": {
        "details": "Delay, in number of blocks, between the vote start and vote ends. NOTE: The {votingDelay} can delay the start of the vote. This must be considered when setting the voting duration compared to the voting delay."
      }
    },
    "version": 1
  },
  "userdoc": {
    "kind": "user",
    "methods": {
      "votingDelay()": {
        "notice": "module:user-config"
      },
      "votingPeriod()": {
        "notice": "module:user-config"
      }
    },
    "version": 1
  }
}