{
  "contractName": "TimeLock",
  "abi": [
    {
      "inputs": [
        {
          "internalType": "uint256",
          "name": "_minDelay",
          "type": "uint256"
        },
        {
          "internalType": "address[]",
          "name": "_proposers",
          "type": "address[]"
        },
        {
          "internalType": "address[]",
          "name": "_executors",
          "type": "address[]"
        }
      ],
      "stateMutability": "nonpayable",
      "type": "constructor"
    },
    {
      "anonymous": false,
      "inputs": [
        {
          "indexed": true,
          "internalType": "bytes32",
          "name": "id",
          "type": "bytes32"
        },
        {
          "indexed": true,
          "internalType": "uint256",
          "name": "index",
          "type": "uint256"
        },
        {
          "indexed": false,
          "internalType": "address",
          "name": "target",
          "type": "address"
        },
        {
          "indexed": false,
          "internalType": "uint256",
          "name": "value",
          "type": "uint256"
        },
        {
          "indexed": false,
          "internalType": "bytes",
          "name": "data",
          "type": "bytes"
        }
      ],
      "name": "CallExecuted",
      "type": "event"
    },
    {
      "anonymous": false,
      "inputs": [
        {
          "indexed": true,
          "internalType": "bytes32",
          "name": "id",
          "type": "bytes32"
        },
        {
          "indexed": true,
          "internalType": "uint256",
          "name": "index",
          "type": "uint256"
        },
        {
          "indexed": false,
          "internalType": "address",
          "name": "target",
          "type": "address"
        },
        {
          "indexed": false,
          "internalType": "uint256",
          "name": "value",
          "type": "uint256"
        },
        {
          "indexed": false,
          "internalType": "bytes",
          "name": "data",
          "type": "bytes"
        },
        {
          "indexed": false,
          "internalType": "bytes32",
          "name": "predecessor",
          "type": "bytes32"
        },
        {
          "indexed": false,
          "internalType": "uint256",
          "name": "delay",
          "type": "uint256"
        }
      ],
      "name": "CallScheduled",
      "type": "event"
    },
    {
      "anonymous": false,
      "inputs": [
        {
          "indexed": true,
          "internalType": "bytes32",
          "name": "id",
          "type": "bytes32"
        }
      ],
      "name": "Cancelled",
      "type": "event"
    },
    {
      "anonymous": false,
      "inputs": [
        {
          "indexed": false,
          "internalType": "uint256",
          "name": "oldDuration",
          "type": "uint256"
        },
        {
          "indexed": false,
          "internalType": "uint256",
          "name": "newDuration",
          "type": "uint256"
        }
      ],
      "name": "MinDelayChange",
      "type": "event"
    },
    {
      "anonymous": false,
      "inputs": [
        {
          "indexed": true,
          "internalType": "bytes32",
          "name": "role",
          "type": "bytes32"
        },
        {
          "indexed": true,
          "internalType": "bytes32",
          "name": "previousAdminRole",
          "type": "bytes32"
        },
        {
          "indexed": true,
          "internalType": "bytes32",
          "name": "newAdminRole",
          "type": "bytes32"
        }
      ],
      "name": "RoleAdminChanged",
      "type": "event"
    },
    {
      "anonymous": false,
      "inputs": [
        {
          "indexed": true,
          "internalType": "bytes32",
          "name": "role",
          "type": "bytes32"
        },
        {
          "indexed": true,
          "internalType": "address",
          "name": "account",
          "type": "address"
        },
        {
          "indexed": true,
          "internalType": "address",
          "name": "sender",
          "type": "address"
        }
      ],
      "name": "RoleGranted",
      "type": "event"
    },
    {
      "anonymous": false,
      "inputs": [
        {
          "indexed": true,
          "internalType": "bytes32",
          "name": "role",
          "type": "bytes32"
        },
        {
          "indexed": true,
          "internalType": "address",
          "name": "account",
          "type": "address"
        },
        {
          "indexed": true,
          "internalType": "address",
          "name": "sender",
          "type": "address"
        }
      ],
      "name": "RoleRevoked",
      "type": "event"
    },
    {
      "inputs": [],
      "name": "CANCELLER_ROLE",
      "outputs": [
        {
          "internalType": "bytes32",
          "name": "",
          "type": "bytes32"
        }
      ],
      "stateMutability": "view",
      "type": "function",
      "constant": true
    },
    {
      "inputs": [],
      "name": "DEFAULT_ADMIN_ROLE",
      "outputs": [
        {
          "internalType": "bytes32",
          "name": "",
          "type": "bytes32"
        }
      ],
      "stateMutability": "view",
      "type": "function",
      "constant": true
    },
    {
      "inputs": [],
      "name": "EXECUTOR_ROLE",
      "outputs": [
        {
          "internalType": "bytes32",
          "name": "",
          "type": "bytes32"
        }
      ],
      "stateMutability": "view",
      "type": "function",
      "constant": true
    },
    {
      "inputs": [],
      "name": "PROPOSER_ROLE",
      "outputs": [
        {
          "internalType": "bytes32",
          "name": "",
          "type": "bytes32"
        }
      ],
      "stateMutability": "view",
      "type": "function",
      "constant": true
    },
    {
      "inputs": [],
      "name": "TIMELOCK_ADMIN_ROLE",
      "outputs": [
        {
          "internalType": "bytes32",
          "name": "",
          "type": "bytes32"
        }
      ],
      "stateMutability": "view",
      "type": "function",
      "constant": true
    },
    {
      "inputs": [
        {
          "internalType": "bytes32",
          "name": "id",
          "type": "bytes32"
        }
      ],
      "name": "cancel",
      "outputs": [],
      "stateMutability": "nonpayable",
      "type": "function"
    },
    {
      "inputs": [
        {
          "internalType": "address",
          "name": "target",
          "type": "address"
        },
        {
          "internalType": "uint256",
          "name": "value",
          "type": "uint256"
        },
        {
          "internalType": "bytes",
          "name": "data",
          "type": "bytes"
        },
        {
          "internalType": "bytes32",
          "name": "predecessor",
          "type": "bytes32"
        },
        {
          "internalType": "bytes32",
          "name": "salt",
          "type": "bytes32"
        }
      ],
      "name": "execute",
      "outputs": [],
      "stateMutability": "payable",
      "type": "function",
      "payable": true
    },
    {
      "inputs": [
        {
          "internalType": "address[]",
          "name": "targets",
          "type": "address[]"
        },
        {
          "internalType": "uint256[]",
          "name": "values",
          "type": "uint256[]"
        },
        {
          "internalType": "bytes[]",
          "name": "payloads",
          "type": "bytes[]"
        },
        {
          "internalType": "bytes32",
          "name": "predecessor",
          "type": "bytes32"
        },
        {
          "internalType": "bytes32",
          "name": "salt",
          "type": "bytes32"
        }
      ],
      "name": "executeBatch",
      "outputs": [],
      "stateMutability": "payable",
      "type": "function",
      "payable": true
    },
    {
      "inputs": [],
      "name": "getMinDelay",
      "outputs": [
        {
          "internalType": "uint256",
          "name": "duration",
          "type": "uint256"
        }
      ],
      "stateMutability": "view",
      "type": "function",
      "constant": true
    },
    {
      "inputs": [
        {
          "internalType": "bytes32",
          "name": "role",
          "type": "bytes32"
        }
      ],
      "name": "getRoleAdmin",
      "outputs": [
        {
          "internalType": "bytes32",
          "name": "",
          "type": "bytes32"
        }
      ],
      "stateMutability": "view",
      "type": "function",
      "constant": true
    },
    {
      "inputs": [
        {
          "internalType": "bytes32",
          "name": "id",
          "type": "bytes32"
        }
      ],
      "name": "getTimestamp",
      "outputs": [
        {
          "internalType": "uint256",
          "name": "timestamp",
          "type": "uint256"
        }
      ],
      "stateMutability": "view",
      "type": "function",
      "constant": true
    },
    {
      "inputs": [
        {
          "internalType": "bytes32",
          "name": "role",
          "type": "bytes32"
        },
        {
          "internalType": "address",
          "name": "account",
          "type": "address"
        }
      ],
      "name": "grantRole",
      "outputs": [],
      "stateMutability": "nonpayable",
      "type": "function"
    },
    {
      "inputs": [
        {
          "internalType": "bytes32",
          "name": "role",
          "type": "bytes32"
        },
        {
          "internalType": "address",
          "name": "account",
          "type": "address"
        }
      ],
      "name": "hasRole",
      "outputs": [
        {
          "internalType": "bool",
          "name": "",
          "type": "bool"
        }
      ],
      "stateMutability": "view",
      "type": "function",
      "constant": true
    },
    {
      "inputs": [
        {
          "internalType": "address",
          "name": "target",
          "type": "address"
        },
        {
          "internalType": "uint256",
          "name": "value",
          "type": "uint256"
        },
        {
          "internalType": "bytes",
          "name": "data",
          "type": "bytes"
        },
        {
          "internalType": "bytes32",
          "name": "predecessor",
          "type": "bytes32"
        },
        {
          "internalType": "bytes32",
          "name": "salt",
          "type": "bytes32"
        }
      ],
      "name": "hashOperation",
      "outputs": [
        {
          "internalType": "bytes32",
          "name": "hash",
          "type": "bytes32"
        }
      ],
      "stateMutability": "pure",
      "type": "function",
      "constant": true
    },
    {
      "inputs": [
        {
          "internalType": "address[]",
          "name": "targets",
          "type": "address[]"
        },
        {
          "internalType": "uint256[]",
          "name": "values",
          "type": "uint256[]"
        },
        {
          "internalType": "bytes[]",
          "name": "payloads",
          "type": "bytes[]"
        },
        {
          "internalType": "bytes32",
          "name": "predecessor",
          "type": "bytes32"
        },
        {
          "internalType": "bytes32",
          "name": "salt",
          "type": "bytes32"
        }
      ],
      "name": "hashOperationBatch",
      "outputs": [
        {
          "internalType": "bytes32",
          "name": "hash",
          "type": "bytes32"
        }
      ],
      "stateMutability": "pure",
      "type": "function",
      "constant": true
    },
    {
      "inputs": [
        {
          "internalType": "bytes32",
          "name": "id",
          "type": "bytes32"
        }
      ],
      "name": "isOperation",
      "outputs": [
        {
          "internalType": "bool",
          "name": "pending",
          "type": "bool"
        }
      ],
      "stateMutability": "view",
      "type": "function",
      "constant": true
    },
    {
      "inputs": [
        {
          "internalType": "bytes32",
          "name": "id",
          "type": "bytes32"
        }
      ],
      "name": "isOperationDone",
      "outputs": [
        {
          "internalType": "bool",
          "name": "done",
          "type": "bool"
        }
      ],
      "stateMutability": "view",
      "type": "function",
      "constant": true
    },
    {
      "inputs": [
        {
          "internalType": "bytes32",
          "name": "id",
          "type": "bytes32"
        }
      ],
      "name": "isOperationPending",
      "outputs": [
        {
          "internalType": "bool",
          "name": "pending",
          "type": "bool"
        }
      ],
      "stateMutability": "view",
      "type": "function",
      "constant": true
    },
    {
      "inputs": [
        {
          "internalType": "bytes32",
          "name": "id",
          "type": "bytes32"
        }
      ],
      "name": "isOperationReady",
      "outputs": [
        {
          "internalType": "bool",
          "name": "ready",
          "type": "bool"
        }
      ],
      "stateMutability": "view",
      "type": "function",
      "constant": true
    },
    {
      "inputs": [
        {
          "internalType": "address",
          "name": "",
          "type": "address"
        },
        {
          "internalType": "address",
          "name": "",
          "type": "address"
        },
        {
          "internalType": "uint256[]",
          "name": "",
          "type": "uint256[]"
        },
        {
          "internalType": "uint256[]",
          "name": "",
          "type": "uint256[]"
        },
        {
          "internalType": "bytes",
          "name": "",
          "type": "bytes"
        }
      ],
      "name": "onERC1155BatchReceived",
      "outputs": [
        {
          "internalType": "bytes4",
          "name": "",
          "type": "bytes4"
        }
      ],
      "stateMutability": "nonpayable",
      "type": "function"
    },
    {
      "inputs": [
        {
          "internalType": "address",
          "name": "",
          "type": "address"
        },
        {
          "internalType": "address",
          "name": "",
          "type": "address"
        },
        {
          "internalType": "uint256",
          "name": "",
          "type": "uint256"
        },
        {
          "internalType": "uint256",
          "name": "",
          "type": "uint256"
        },
        {
          "internalType": "bytes",
          "name": "",
          "type": "bytes"
        }
      ],
      "name": "onERC1155Received",
      "outputs": [
        {
          "internalType": "bytes4",
          "name": "",
          "type": "bytes4"
        }
      ],
      "stateMutability": "nonpayable",
      "type": "function"
    },
    {
      "inputs": [
        {
          "internalType": "address",
          "name": "",
          "type": "address"
        },
        {
          "internalType": "address",
          "name": "",
          "type": "address"
        },
        {
          "internalType": "uint256",
          "name": "",
          "type": "uint256"
        },
        {
          "internalType": "bytes",
          "name": "",
          "type": "bytes"
        }
      ],
      "name": "onERC721Received",
      "outputs": [
        {
          "internalType": "bytes4",
          "name": "",
          "type": "bytes4"
        }
      ],
      "stateMutability": "nonpayable",
      "type": "function"
    },
    {
      "inputs": [
        {
          "internalType": "bytes32",
          "name": "role",
          "type": "bytes32"
        },
        {
          "internalType": "address",
          "name": "account",
          "type": "address"
        }
      ],
      "name": "renounceRole",
      "outputs": [],
      "stateMutability": "nonpayable",
      "type": "function"
    },
    {
      "inputs": [
        {
          "internalType": "bytes32",
          "name": "role",
          "type": "bytes32"
        },
        {
          "internalType": "address",
          "name": "account",
          "type": "address"
        }
      ],
      "name": "revokeRole",
      "outputs": [],
      "stateMutability": "nonpayable",
      "type": "function"
    },
    {
      "inputs": [
        {
          "internalType": "address",
          "name": "target",
          "type": "address"
        },
        {
          "internalType": "uint256",
          "name": "value",
          "type": "uint256"
        },
        {
          "internalType": "bytes",
          "name": "data",
          "type": "bytes"
        },
        {
          "internalType": "bytes32",
          "name": "predecessor",
          "type": "bytes32"
        },
        {
          "internalType": "bytes32",
          "name": "salt",
          "type": "bytes32"
        },
        {
          "internalType": "uint256",
          "name": "delay",
          "type": "uint256"
        }
      ],
      "name": "schedule",
      "outputs": [],
      "stateMutability": "nonpayable",
      "type": "function"
    },
    {
      "inputs": [
        {
          "internalType": "address[]",
          "name": "targets",
          "type": "address[]"
        },
        {
          "internalType": "uint256[]",
          "name": "values",
          "type": "uint256[]"
        },
        {
          "internalType": "bytes[]",
          "name": "payloads",
          "type": "bytes[]"
        },
        {
          "internalType": "bytes32",
          "name": "predecessor",
          "type": "bytes32"
        },
        {
          "internalType": "bytes32",
          "name": "salt",
          "type": "bytes32"
        },
        {
          "internalType": "uint256",
          "name": "delay",
          "type": "uint256"
        }
      ],
      "name": "scheduleBatch",
      "outputs": [],
      "stateMutability": "nonpayable",
      "type": "function"
    },
    {
      "inputs": [
        {
          "internalType": "bytes4",
          "name": "interfaceId",
          "type": "bytes4"
        }
      ],
      "name": "supportsInterface",
      "outputs": [
        {
          "internalType": "bool",
          "name": "",
          "type": "bool"
        }
      ],
      "stateMutability": "view",
      "type": "function",
      "constant": true
    },
    {
      "inputs": [
        {
          "internalType": "uint256",
          "name": "newDelay",
          "type": "uint256"
        }
      ],
      "name": "updateDelay",
      "outputs": [],
      "stateMutability": "nonpayable",
      "type": "function"
    },
    {
      "stateMutability": "payable",
      "type": "receive",
      "payable": true
    }
  ],
  "bytecode": "0x60806040523480156200001157600080fd5b5060405162003bc538038062003bc5833981810160405281019062000037919062000779565b8282826200006c7f5f58e3a2316349923ce3780f8d587db2d72378aed66a8261c916544fa6846ca5806200035560201b60201c565b620000be7fb09aa5aeb3702cfd50b6b62bc4532604938f21248a27a1d5ca736082b6819cc17f5f58e3a2316349923ce3780f8d587db2d72378aed66a8261c916544fa6846ca56200035560201b60201c565b620001107fd8aa0f3194971a2a116679f7c2090f6939c8d4e01a2a8d7e41d55e5351469e637f5f58e3a2316349923ce3780f8d587db2d72378aed66a8261c916544fa6846ca56200035560201b60201c565b620001627ffd643c72710c63c0180259aba6b2d05451e3591a24e58b62239378085726f7837f5f58e3a2316349923ce3780f8d587db2d72378aed66a8261c916544fa6846ca56200035560201b60201c565b620001a37f5f58e3a2316349923ce3780f8d587db2d72378aed66a8261c916544fa6846ca562000197620003b860201b60201c565b620003c060201b60201c565b620001d57f5f58e3a2316349923ce3780f8d587db2d72378aed66a8261c916544fa6846ca530620003c060201b60201c565b60005b82518110156200029457620002317fb09aa5aeb3702cfd50b6b62bc4532604938f21248a27a1d5ca736082b6819cc18483815181106200021d576200021c62000813565b5b6020026020010151620003c060201b60201c565b620002807ffd643c72710c63c0180259aba6b2d05451e3591a24e58b62239378085726f7838483815181106200026c576200026b62000813565b5b6020026020010151620003c060201b60201c565b806200028c9062000871565b9050620001d8565b5060005b81518110156200030557620002f17fd8aa0f3194971a2a116679f7c2090f6939c8d4e01a2a8d7e41d55e5351469e63838381518110620002dd57620002dc62000813565b5b6020026020010151620003c060201b60201c565b80620002fd9062000871565b905062000298565b50826002819055507f11c24f4ead16507c69ac467fbd5e4eed5fb5c699626d2cc6d66421df253886d5600084604051620003419291906200091d565b60405180910390a15050505050506200094a565b60006200036883620003d660201b60201c565b905081600080858152602001908152602001600020600101819055508181847fbd79b86ffe0ab8e8776151514217cd7cacd52c909f66475c3af44e129f0b00ff60405160405180910390a4505050565b600033905090565b620003d28282620003f560201b60201c565b5050565b6000806000838152602001908152602001600020600101549050919050565b620004078282620004e660201b60201c565b620004e257600160008084815260200190815260200160002060000160008373ffffffffffffffffffffffffffffffffffffffff1673ffffffffffffffffffffffffffffffffffffffff16815260200190815260200160002060006101000a81548160ff02191690831515021790555062000487620003b860201b60201c565b73ffffffffffffffffffffffffffffffffffffffff168173ffffffffffffffffffffffffffffffffffffffff16837f2f8788117e7eff1d82e926ec794901d17c78024a50270940304540a733656f0d60405160405180910390a45b5050565b600080600084815260200190815260200160002060000160008373ffffffffffffffffffffffffffffffffffffffff1673ffffffffffffffffffffffffffffffffffffffff16815260200190815260200160002060009054906101000a900460ff16905092915050565b6000604051905090565b600080fd5b600080fd5b6000819050919050565b620005798162000564565b81146200058557600080fd5b50565b60008151905062000599816200056e565b92915050565b600080fd5b6000601f19601f8301169050919050565b7f4e487b7100000000000000000000000000000000000000000000000000000000600052604160045260246000fd5b620005ef82620005a4565b810181811067ffffffffffffffff82111715620006115762000610620005b5565b5b80604052505050565b60006200062662000550565b9050620006348282620005e4565b919050565b600067ffffffffffffffff821115620006575762000656620005b5565b5b602082029050602081019050919050565b600080fd5b600073ffffffffffffffffffffffffffffffffffffffff82169050919050565b60006200069a826200066d565b9050919050565b620006ac816200068d565b8114620006b857600080fd5b50565b600081519050620006cc81620006a1565b92915050565b6000620006e9620006e38462000639565b6200061a565b905080838252602082019050602084028301858111156200070f576200070e62000668565b5b835b818110156200073c5780620007278882620006bb565b84526020840193505060208101905062000711565b5050509392505050565b600082601f8301126200075e576200075d6200059f565b5b815162000770848260208601620006d2565b91505092915050565b6000806000606084860312156200079557620007946200055a565b5b6000620007a58682870162000588565b935050602084015167ffffffffffffffff811115620007c957620007c86200055f565b5b620007d78682870162000746565b925050604084015167ffffffffffffffff811115620007fb57620007fa6200055f565b5b620008098682870162000746565b9150509250925092565b7f4e487b7100000000000000000000000000000000000000000000000000000000600052603260045260246000fd5b7f4e487b7100000000000000000000000000000000000000000000000000000000600052601160045260246000fd5b60006200087e8262000564565b91507fffffffffffffffffffffffffffffffffffffffffffffffffffffffffffffffff821415620008b457620008b362000842565b5b600182019050919050565b6000819050919050565b6000819050919050565b6000620008f4620008ee620008e884620008bf565b620008c9565b62000564565b9050919050565b6200090681620008d3565b82525050565b620009178162000564565b82525050565b6000604082019050620009346000830185620008fb565b6200094360208301846200090c565b9392505050565b61326b806200095a6000396000f3fe6080604052600436106101bb5760003560e01c80638065657f116100ec578063bc197c811161008a578063d547741f11610064578063d547741f1461068c578063e38335e5146106b5578063f23a6e61146106d1578063f27a0c921461070e576101c2565b8063bc197c81146105e9578063c4d252f514610626578063d45c44351461064f576101c2565b806391d14854116100c657806391d1485414610519578063a217fddf14610556578063b08e51c014610581578063b1c5f427146105ac576101c2565b80638065657f146104885780638f2a0bb0146104c55780638f61f4f5146104ee576101c2565b8063248a9ca31161015957806331d507501161013357806331d50750146103bc57806336568abe146103f9578063584b153e1461042257806364d623531461045f576101c2565b8063248a9ca3146103195780632ab0f529146103565780632f2ff15d14610393576101c2565b80630d3cf6fc116101955780630d3cf6fc14610258578063134008d31461028357806313bc9f201461029f578063150b7a02146102dc576101c2565b806301d5062a146101c757806301ffc9a7146101f057806307bd02651461022d576101c2565b366101c257005b600080fd5b3480156101d357600080fd5b506101ee60048036038101906101e99190611a3b565b610739565b005b3480156101fc57600080fd5b5061021760048036038101906102129190611b42565b6107ce565b6040516102249190611b8a565b60405180910390f35b34801561023957600080fd5b50610242610848565b60405161024f9190611bb4565b60405180910390f35b34801561026457600080fd5b5061026d61086c565b60405161027a9190611bb4565b60405180910390f35b61029d60048036038101906102989190611bcf565b610890565b005b3480156102ab57600080fd5b506102c660048036038101906102c19190611c69565b610910565b6040516102d39190611b8a565b60405180910390f35b3480156102e857600080fd5b5061030360048036038101906102fe9190611dd7565b610936565b6040516103109190611e69565b60405180910390f35b34801561032557600080fd5b50610340600480360381019061033b9190611c69565b61094a565b60405161034d9190611bb4565b60405180910390f35b34801561036257600080fd5b5061037d60048036038101906103789190611c69565b610969565b60405161038a9190611b8a565b60405180910390f35b34801561039f57600080fd5b506103ba60048036038101906103b59190611e84565b61097e565b005b3480156103c857600080fd5b506103e360048036038101906103de9190611c69565b61099f565b6040516103f09190611b8a565b60405180910390f35b34801561040557600080fd5b50610420600480360381019061041b9190611e84565b6109b3565b005b34801561042e57600080fd5b5061044960048036038101906104449190611c69565b610a36565b6040516104569190611b8a565b60405180910390f35b34801561046b57600080fd5b5061048660048036038101906104819190611ec4565b610a4b565b005b34801561049457600080fd5b506104af60048036038101906104aa9190611bcf565b610afe565b6040516104bc9190611bb4565b60405180910390f35b3480156104d157600080fd5b506104ec60048036038101906104e79190611ff3565b610b3d565b005b3480156104fa57600080fd5b50610503610ce8565b6040516105109190611bb4565b60405180910390f35b34801561052557600080fd5b50610540600480360381019061053b9190611e84565b610d0c565b60405161054d9190611b8a565b60405180910390f35b34801561056257600080fd5b5061056b610d76565b6040516105789190611bb4565b60405180910390f35b34801561058d57600080fd5b50610596610d7d565b6040516105a39190611bb4565b60405180910390f35b3480156105b857600080fd5b506105d360048036038101906105ce91906120e2565b610da1565b6040516105e09190611bb4565b60405180910390f35b3480156105f557600080fd5b50610610600480360381019061060b9190612281565b610de6565b60405161061d9190611e69565b60405180910390f35b34801561063257600080fd5b5061064d60048036038101906106489190611c69565b610dfb565b005b34801561065b57600080fd5b5061067660048036038101906106719190611c69565b610eb5565b604051610683919061235f565b60405180910390f35b34801561069857600080fd5b506106b360048036038101906106ae9190611e84565b610ed2565b005b6106cf60048036038101906106ca91906120e2565b610ef3565b005b3480156106dd57600080fd5b506106f860048036038101906106f3919061237a565b611089565b6040516107059190611e69565b60405180910390f35b34801561071a57600080fd5b5061072361109e565b604051610730919061235f565b60405180910390f35b7fb09aa5aeb3702cfd50b6b62bc4532604938f21248a27a1d5ca736082b6819cc1610763816110a8565b6000610773898989898989610afe565b905061077f81846110bc565b6000817f4cf4410cc57040e44862ef0f45f3dd5a5e02db8eb8add648d4b0e236f1d07dca8b8b8b8b8b8a6040516107bb9695949392919061245e565b60405180910390a3505050505050505050565b60007f4e2312e0000000000000000000000000000000000000000000000000000000007bffffffffffffffffffffffffffffffffffffffffffffffffffffffff1916827bffffffffffffffffffffffffffffffffffffffffffffffffffffffff19161480610841575061084082611176565b5b9050919050565b7fd8aa0f3194971a2a116679f7c2090f6939c8d4e01a2a8d7e41d55e5351469e6381565b7f5f58e3a2316349923ce3780f8d587db2d72378aed66a8261c916544fa6846ca581565b7fd8aa0f3194971a2a116679f7c2090f6939c8d4e01a2a8d7e41d55e5351469e636108bc816000610d0c565b6108d2576108d1816108cc6111f0565b6111f8565b5b60006108e2888888888888610afe565b90506108ee8185611295565b6108fd8160008a8a8a8a611336565b6109068161142e565b5050505050505050565b60008061091c83610eb5565b905060018111801561092e5750428111155b915050919050565b600063150b7a0260e01b9050949350505050565b6000806000838152602001908152602001600020600101549050919050565b6000600161097683610eb5565b149050919050565b6109878261094a565b610990816110a8565b61099a8383611491565b505050565b6000806109ab83610eb5565b119050919050565b6109bb6111f0565b73ffffffffffffffffffffffffffffffffffffffff168173ffffffffffffffffffffffffffffffffffffffff1614610a28576040517f08c379a0000000000000000000000000000000000000000000000000000000008152600401610a1f9061253d565b60405180910390fd5b610a328282611571565b5050565b60006001610a4383610eb5565b119050919050565b3073ffffffffffffffffffffffffffffffffffffffff163373ffffffffffffffffffffffffffffffffffffffff1614610ab9576040517f08c379a0000000000000000000000000000000000000000000000000000000008152600401610ab0906125cf565b60405180910390fd5b7f11c24f4ead16507c69ac467fbd5e4eed5fb5c699626d2cc6d66421df253886d560025482604051610aec9291906125ef565b60405180910390a18060028190555050565b6000868686868686604051602001610b1b96959493929190612618565b6040516020818303038152906040528051906020012090509695505050505050565b7fb09aa5aeb3702cfd50b6b62bc4532604938f21248a27a1d5ca736082b6819cc1610b67816110a8565b878790508a8a905014610baf576040517f08c379a0000000000000000000000000000000000000000000000000000000008152600401610ba6906126e6565b60405180910390fd5b858590508a8a905014610bf7576040517f08c379a0000000000000000000000000000000000000000000000000000000008152600401610bee906126e6565b60405180910390fd5b6000610c098b8b8b8b8b8b8b8b610da1565b9050610c1581846110bc565b60005b8b8b9050811015610cda5780827f4cf4410cc57040e44862ef0f45f3dd5a5e02db8eb8add648d4b0e236f1d07dca8e8e85818110610c5957610c58612706565b5b9050602002016020810190610c6e9190612735565b8d8d86818110610c8157610c80612706565b5b905060200201358c8c87818110610c9b57610c9a612706565b5b9050602002810190610cad9190612771565b8c8b604051610cc19695949392919061245e565b60405180910390a380610cd390612803565b9050610c18565b505050505050505050505050565b7fb09aa5aeb3702cfd50b6b62bc4532604938f21248a27a1d5ca736082b6819cc181565b600080600084815260200190815260200160002060000160008373ffffffffffffffffffffffffffffffffffffffff1673ffffffffffffffffffffffffffffffffffffffff16815260200190815260200160002060009054906101000a900460ff16905092915050565b6000801b81565b7ffd643c72710c63c0180259aba6b2d05451e3591a24e58b62239378085726f78381565b60008888888888888888604051602001610dc2989796959493929190612ae5565b60405160208183030381529060405280519060200120905098975050505050505050565b600063bc197c8160e01b905095945050505050565b7ffd643c72710c63c0180259aba6b2d05451e3591a24e58b62239378085726f783610e25816110a8565b610e2e82610a36565b610e6d576040517f08c379a0000000000000000000000000000000000000000000000000000000008152600401610e6490612bc5565b60405180910390fd5b6001600083815260200190815260200160002060009055817fbaa1eb22f2a492ba1a5fea61b8df4d27c6c8b5f3971e63bb58fa14ff72eedb7060405160405180910390a25050565b600060016000838152602001908152602001600020549050919050565b610edb8261094a565b610ee4816110a8565b610eee8383611571565b505050565b7fd8aa0f3194971a2a116679f7c2090f6939c8d4e01a2a8d7e41d55e5351469e63610f1f816000610d0c565b610f3557610f3481610f2f6111f0565b6111f8565b5b868690508989905014610f7d576040517f08c379a0000000000000000000000000000000000000000000000000000000008152600401610f74906126e6565b60405180910390fd5b848490508989905014610fc5576040517f08c379a0000000000000000000000000000000000000000000000000000000008152600401610fbc906126e6565b60405180910390fd5b6000610fd78a8a8a8a8a8a8a8a610da1565b9050610fe38185611295565b60005b8a8a90508110156110735761106282828d8d8581811061100957611008612706565b5b905060200201602081019061101e9190612735565b8c8c8681811061103157611030612706565b5b905060200201358b8b8781811061104b5761104a612706565b5b905060200281019061105d9190612771565b611336565b8061106c90612803565b9050610fe6565b5061107d8161142e565b50505050505050505050565b600063f23a6e6160e01b905095945050505050565b6000600254905090565b6110b9816110b46111f0565b6111f8565b50565b6110c58261099f565b15611105576040517f08c379a00000000000000000000000000000000000000000000000000000000081526004016110fc90612c57565b60405180910390fd5b61110d61109e565b81101561114f576040517f08c379a000000000000000000000000000000000000000000000000000000000815260040161114690612ce9565b60405180910390fd5b804261115b9190612d09565b60016000848152602001908152602001600020819055505050565b60007f7965db0b000000000000000000000000000000000000000000000000000000007bffffffffffffffffffffffffffffffffffffffffffffffffffffffff1916827bffffffffffffffffffffffffffffffffffffffffffffffffffffffff191614806111e957506111e882611652565b5b9050919050565b600033905090565b6112028282610d0c565b611291576112278173ffffffffffffffffffffffffffffffffffffffff1660146116bc565b6112358360001c60206116bc565b604051602001611246929190612e71565b6040516020818303038152906040526040517f08c379a00000000000000000000000000000000000000000000000000000000081526004016112889190612ee4565b60405180910390fd5b5050565b61129e82610910565b6112dd576040517f08c379a00000000000000000000000000000000000000000000000000000000081526004016112d490612f78565b60405180910390fd5b6000801b8114806112f357506112f281610969565b5b611332576040517f08c379a00000000000000000000000000000000000000000000000000000000081526004016113299061300a565b60405180910390fd5b5050565b60008473ffffffffffffffffffffffffffffffffffffffff1684848460405161136092919061305a565b60006040518083038185875af1925050503d806000811461139d576040519150601f19603f3d011682016040523d82523d6000602084013e6113a2565b606091505b50509050806113e6576040517f08c379a00000000000000000000000000000000000000000000000000000000081526004016113dd906130e5565b60405180910390fd5b85877fc2617efa69bab66782fa219543714338489c4e9e178271560a91b82c3f612b588787878760405161141d9493929190613105565b60405180910390a350505050505050565b61143781610910565b611476576040517f08c379a000000000000000000000000000000000000000000000000000000000815260040161146d90612f78565b60405180910390fd5b60018060008381526020019081526020016000208190555050565b61149b8282610d0c565b61156d57600160008084815260200190815260200160002060000160008373ffffffffffffffffffffffffffffffffffffffff1673ffffffffffffffffffffffffffffffffffffffff16815260200190815260200160002060006101000a81548160ff0219169083151502179055506115126111f0565b73ffffffffffffffffffffffffffffffffffffffff168173ffffffffffffffffffffffffffffffffffffffff16837f2f8788117e7eff1d82e926ec794901d17c78024a50270940304540a733656f0d60405160405180910390a45b5050565b61157b8282610d0c565b1561164e57600080600084815260200190815260200160002060000160008373ffffffffffffffffffffffffffffffffffffffff1673ffffffffffffffffffffffffffffffffffffffff16815260200190815260200160002060006101000a81548160ff0219169083151502179055506115f36111f0565b73ffffffffffffffffffffffffffffffffffffffff168173ffffffffffffffffffffffffffffffffffffffff16837ff6391f5c32d9c69d2a47ea670b442974b53935d1edc7fd64eb21e047a839171b60405160405180910390a45b5050565b60007f01ffc9a7000000000000000000000000000000000000000000000000000000007bffffffffffffffffffffffffffffffffffffffffffffffffffffffff1916827bffffffffffffffffffffffffffffffffffffffffffffffffffffffff1916149050919050565b6060600060028360026116cf9190613145565b6116d99190612d09565b67ffffffffffffffff8111156116f2576116f1611cac565b5b6040519080825280601f01601f1916602001820160405280156117245781602001600182028036833780820191505090505b5090507f30000000000000000000000000000000000000000000000000000000000000008160008151811061175c5761175b612706565b5b60200101907effffffffffffffffffffffffffffffffffffffffffffffffffffffffffffff1916908160001a9053507f7800000000000000000000000000000000000000000000000000000000000000816001815181106117c0576117bf612706565b5b60200101907effffffffffffffffffffffffffffffffffffffffffffffffffffffffffffff1916908160001a905350600060018460026118009190613145565b61180a9190612d09565b90505b60018111156118aa577f3031323334353637383961626364656600000000000000000000000000000000600f86166010811061184c5761184b612706565b5b1a60f81b82828151811061186357611862612706565b5b60200101907effffffffffffffffffffffffffffffffffffffffffffffffffffffffffffff1916908160001a905350600485901c9450806118a39061319f565b905061180d565b50600084146118ee576040517f08c379a00000000000000000000000000000000000000000000000000000000081526004016118e590613215565b60405180910390fd5b8091505092915050565b6000604051905090565b600080fd5b600080fd5b600073ffffffffffffffffffffffffffffffffffffffff82169050919050565b60006119378261190c565b9050919050565b6119478161192c565b811461195257600080fd5b50565b6000813590506119648161193e565b92915050565b6000819050919050565b61197d8161196a565b811461198857600080fd5b50565b60008135905061199a81611974565b92915050565b600080fd5b600080fd5b600080fd5b60008083601f8401126119c5576119c46119a0565b5b8235905067ffffffffffffffff8111156119e2576119e16119a5565b5b6020830191508360018202830111156119fe576119fd6119aa565b5b9250929050565b6000819050919050565b611a1881611a05565b8114611a2357600080fd5b50565b600081359050611a3581611a0f565b92915050565b600080600080600080600060c0888a031215611a5a57611a59611902565b5b6000611a688a828b01611955565b9750506020611a798a828b0161198b565b965050604088013567ffffffffffffffff811115611a9a57611a99611907565b5b611aa68a828b016119af565b95509550506060611ab98a828b01611a26565b9350506080611aca8a828b01611a26565b92505060a0611adb8a828b0161198b565b91505092959891949750929550565b60007fffffffff0000000000000000000000000000000000000000000000000000000082169050919050565b611b1f81611aea565b8114611b2a57600080fd5b50565b600081359050611b3c81611b16565b92915050565b600060208284031215611b5857611b57611902565b5b6000611b6684828501611b2d565b91505092915050565b60008115159050919050565b611b8481611b6f565b82525050565b6000602082019050611b9f6000830184611b7b565b92915050565b611bae81611a05565b82525050565b6000602082019050611bc96000830184611ba5565b92915050565b60008060008060008060a08789031215611bec57611beb611902565b5b6000611bfa89828a01611955565b9650506020611c0b89828a0161198b565b955050604087013567ffffffffffffffff811115611c2c57611c2b611907565b5b611c3889828a016119af565b94509450506060611c4b89828a01611a26565b9250506080611c5c89828a01611a26565b9150509295509295509295565b600060208284031215611c7f57611c7e611902565b5b6000611c8d84828501611a26565b91505092915050565b600080fd5b6000601f19601f8301169050919050565b7f4e487b7100000000000000000000000000000000000000000000000000000000600052604160045260246000fd5b611ce482611c9b565b810181811067ffffffffffffffff82111715611d0357611d02611cac565b5b80604052505050565b6000611d166118f8565b9050611d228282611cdb565b919050565b600067ffffffffffffffff821115611d4257611d41611cac565b5b611d4b82611c9b565b9050602081019050919050565b82818337600083830152505050565b6000611d7a611d7584611d27565b611d0c565b905082815260208101848484011115611d9657611d95611c96565b5b611da1848285611d58565b509392505050565b600082601f830112611dbe57611dbd6119a0565b5b8135611dce848260208601611d67565b91505092915050565b60008060008060808587031215611df157611df0611902565b5b6000611dff87828801611955565b9450506020611e1087828801611955565b9350506040611e218782880161198b565b925050606085013567ffffffffffffffff811115611e4257611e41611907565b5b611e4e87828801611da9565b91505092959194509250565b611e6381611aea565b82525050565b6000602082019050611e7e6000830184611e5a565b92915050565b60008060408385031215611e9b57611e9a611902565b5b6000611ea985828601611a26565b9250506020611eba85828601611955565b9150509250929050565b600060208284031215611eda57611ed9611902565b5b6000611ee88482850161198b565b91505092915050565b60008083601f840112611f0757611f066119a0565b5b8235905067ffffffffffffffff811115611f2457611f236119a5565b5b602083019150836020820283011115611f4057611f3f6119aa565b5b9250929050565b60008083601f840112611f5d57611f5c6119a0565b5b8235905067ffffffffffffffff811115611f7a57611f796119a5565b5b602083019150836020820283011115611f9657611f956119aa565b5b9250929050565b60008083601f840112611fb357611fb26119a0565b5b8235905067ffffffffffffffff811115611fd057611fcf6119a5565b5b602083019150836020820283011115611fec57611feb6119aa565b5b9250929050565b600080600080600080600080600060c08a8c03121561201557612014611902565b5b60008a013567ffffffffffffffff81111561203357612032611907565b5b61203f8c828d01611ef1565b995099505060208a013567ffffffffffffffff81111561206257612061611907565b5b61206e8c828d01611f47565b975097505060408a013567ffffffffffffffff81111561209157612090611907565b5b61209d8c828d01611f9d565b955095505060606120b08c828d01611a26565b93505060806120c18c828d01611a26565b92505060a06120d28c828d0161198b565b9150509295985092959850929598565b60008060008060008060008060a0898b03121561210257612101611902565b5b600089013567ffffffffffffffff8111156121205761211f611907565b5b61212c8b828c01611ef1565b9850985050602089013567ffffffffffffffff81111561214f5761214e611907565b5b61215b8b828c01611f47565b9650965050604089013567ffffffffffffffff81111561217e5761217d611907565b5b61218a8b828c01611f9d565b9450945050606061219d8b828c01611a26565b92505060806121ae8b828c01611a26565b9150509295985092959890939650565b600067ffffffffffffffff8211156121d9576121d8611cac565b5b602082029050602081019050919050565b60006121fd6121f8846121be565b611d0c565b905080838252602082019050602084028301858111156122205761221f6119aa565b5b835b818110156122495780612235888261198b565b845260208401935050602081019050612222565b5050509392505050565b600082601f830112612268576122676119a0565b5b81356122788482602086016121ea565b91505092915050565b600080600080600060a0868803121561229d5761229c611902565b5b60006122ab88828901611955565b95505060206122bc88828901611955565b945050604086013567ffffffffffffffff8111156122dd576122dc611907565b5b6122e988828901612253565b935050606086013567ffffffffffffffff81111561230a57612309611907565b5b61231688828901612253565b925050608086013567ffffffffffffffff81111561233757612336611907565b5b61234388828901611da9565b9150509295509295909350565b6123598161196a565b82525050565b60006020820190506123746000830184612350565b92915050565b600080600080600060a0868803121561239657612395611902565b5b60006123a488828901611955565b95505060206123b588828901611955565b94505060406123c68882890161198b565b93505060606123d78882890161198b565b925050608086013567ffffffffffffffff8111156123f8576123f7611907565b5b61240488828901611da9565b9150509295509295909350565b61241a8161192c565b82525050565b600082825260208201905092915050565b600061243d8385612420565b935061244a838584611d58565b61245383611c9b565b840190509392505050565b600060a0820190506124736000830189612411565b6124806020830188612350565b8181036040830152612493818688612431565b90506124a26060830185611ba5565b6124af6080830184612350565b979650505050505050565b600082825260208201905092915050565b7f416363657373436f6e74726f6c3a2063616e206f6e6c792072656e6f756e636560008201527f20726f6c657320666f722073656c660000000000000000000000000000000000602082015250565b6000612527602f836124ba565b9150612532826124cb565b604082019050919050565b600060208201905081810360008301526125568161251a565b9050919050565b7f54696d656c6f636b436f6e74726f6c6c65723a2063616c6c6572206d7573742060008201527f62652074696d656c6f636b000000000000000000000000000000000000000000602082015250565b60006125b9602b836124ba565b91506125c48261255d565b604082019050919050565b600060208201905081810360008301526125e8816125ac565b9050919050565b60006040820190506126046000830185612350565b6126116020830184612350565b9392505050565b600060a08201905061262d6000830189612411565b61263a6020830188612350565b818103604083015261264d818688612431565b905061265c6060830185611ba5565b6126696080830184611ba5565b979650505050505050565b7f54696d656c6f636b436f6e74726f6c6c65723a206c656e677468206d69736d6160008201527f7463680000000000000000000000000000000000000000000000000000000000602082015250565b60006126d06023836124ba565b91506126db82612674565b604082019050919050565b600060208201905081810360008301526126ff816126c3565b9050919050565b7f4e487b7100000000000000000000000000000000000000000000000000000000600052603260045260246000fd5b60006020828403121561274b5761274a611902565b5b600061275984828501611955565b91505092915050565b600080fd5b600080fd5b600080fd5b6000808335600160200384360303811261278e5761278d612762565b5b80840192508235915067ffffffffffffffff8211156127b0576127af612767565b5b6020830192506001820236038313156127cc576127cb61276c565b5b509250929050565b7f4e487b7100000000000000000000000000000000000000000000000000000000600052601160045260246000fd5b600061280e8261196a565b91507fffffffffffffffffffffffffffffffffffffffffffffffffffffffffffffffff821415612841576128406127d4565b5b600182019050919050565b600082825260208201905092915050565b6000819050919050565b6128708161192c565b82525050565b60006128828383612867565b60208301905092915050565b600061289d6020840184611955565b905092915050565b6000602082019050919050565b60006128be838561284c565b93506128c98261285d565b8060005b85811015612902576128df828461288e565b6128e98882612876565b97506128f4836128a5565b9250506001810190506128cd565b5085925050509392505050565b600082825260208201905092915050565b600080fd5b6000612931838561290f565b93507f07ffffffffffffffffffffffffffffffffffffffffffffffffffffffffffffff83111561296457612963612920565b5b602083029250612975838584611d58565b82840190509392505050565b600082825260208201905092915050565b6000819050919050565b600082825260208201905092915050565b60006129b9838561299c565b93506129c6838584611d58565b6129cf83611c9b565b840190509392505050565b60006129e78484846129ad565b90509392505050565b600080fd5b600080fd5b600080fd5b60008083356001602003843603038112612a1c57612a1b6129fa565b5b83810192508235915060208301925067ffffffffffffffff821115612a4457612a436129f0565b5b600182023603841315612a5a57612a596129f5565b5b509250929050565b6000602082019050919050565b6000612a7b8385612981565b935083602084028501612a8d84612992565b8060005b87811015612ad3578484038952612aa882846129ff565b612ab38682846129da565b9550612abe84612a62565b935060208b019a505050600181019050612a91565b50829750879450505050509392505050565b600060a0820190508181036000830152612b00818a8c6128b2565b90508181036020830152612b1581888a612925565b90508181036040830152612b2a818688612a6f565b9050612b396060830185611ba5565b612b466080830184611ba5565b9998505050505050505050565b7f54696d656c6f636b436f6e74726f6c6c65723a206f7065726174696f6e20636160008201527f6e6e6f742062652063616e63656c6c6564000000000000000000000000000000602082015250565b6000612baf6031836124ba565b9150612bba82612b53565b604082019050919050565b60006020820190508181036000830152612bde81612ba2565b9050919050565b7f54696d656c6f636b436f6e74726f6c6c65723a206f7065726174696f6e20616c60008201527f7265616479207363686564756c65640000000000000000000000000000000000602082015250565b6000612c41602f836124ba565b9150612c4c82612be5565b604082019050919050565b60006020820190508181036000830152612c7081612c34565b9050919050565b7f54696d656c6f636b436f6e74726f6c6c65723a20696e73756666696369656e7460008201527f2064656c61790000000000000000000000000000000000000000000000000000602082015250565b6000612cd36026836124ba565b9150612cde82612c77565b604082019050919050565b60006020820190508181036000830152612d0281612cc6565b9050919050565b6000612d148261196a565b9150612d1f8361196a565b9250827fffffffffffffffffffffffffffffffffffffffffffffffffffffffffffffffff03821115612d5457612d536127d4565b5b828201905092915050565b600081905092915050565b7f416363657373436f6e74726f6c3a206163636f756e7420000000000000000000600082015250565b6000612da0601783612d5f565b9150612dab82612d6a565b601782019050919050565b600081519050919050565b60005b83811015612ddf578082015181840152602081019050612dc4565b83811115612dee576000848401525b50505050565b6000612dff82612db6565b612e098185612d5f565b9350612e19818560208601612dc1565b80840191505092915050565b7f206973206d697373696e6720726f6c6520000000000000000000000000000000600082015250565b6000612e5b601183612d5f565b9150612e6682612e25565b601182019050919050565b6000612e7c82612d93565b9150612e888285612df4565b9150612e9382612e4e565b9150612e9f8284612df4565b91508190509392505050565b6000612eb682612db6565b612ec081856124ba565b9350612ed0818560208601612dc1565b612ed981611c9b565b840191505092915050565b60006020820190508181036000830152612efe8184612eab565b905092915050565b7f54696d656c6f636b436f6e74726f6c6c65723a206f7065726174696f6e20697360008201527f206e6f7420726561647900000000000000000000000000000000000000000000602082015250565b6000612f62602a836124ba565b9150612f6d82612f06565b604082019050919050565b60006020820190508181036000830152612f9181612f55565b9050919050565b7f54696d656c6f636b436f6e74726f6c6c65723a206d697373696e67206465706560008201527f6e64656e63790000000000000000000000000000000000000000000000000000602082015250565b6000612ff46026836124ba565b9150612fff82612f98565b604082019050919050565b6000602082019050818103600083015261302381612fe7565b9050919050565b600081905092915050565b6000613041838561302a565b935061304e838584611d58565b82840190509392505050565b6000613067828486613035565b91508190509392505050565b7f54696d656c6f636b436f6e74726f6c6c65723a20756e6465726c79696e67207460008201527f72616e73616374696f6e20726576657274656400000000000000000000000000602082015250565b60006130cf6033836124ba565b91506130da82613073565b604082019050919050565b600060208201905081810360008301526130fe816130c2565b9050919050565b600060608201905061311a6000830187612411565b6131276020830186612350565b818103604083015261313a818486612431565b905095945050505050565b60006131508261196a565b915061315b8361196a565b9250817fffffffffffffffffffffffffffffffffffffffffffffffffffffffffffffffff0483118215151615613194576131936127d4565b5b828202905092915050565b60006131aa8261196a565b915060008214156131be576131bd6127d4565b5b600182039050919050565b7f537472696e67733a20686578206c656e67746820696e73756666696369656e74600082015250565b60006131ff6020836124ba565b915061320a826131c9565b602082019050919050565b6000602082019050818103600083015261322e816131f2565b905091905056fea2646970667358221220443d9515b05ce757a41b0e50ca9431ac2e773d75564dea07d39c8477059be9cb64736f6c634300080c0033",
  "immutableReferences": {},
  "source": "// SPDX-License-Identifier: ISC\npragma solidity ^0.8.12;\n\nimport \"@openzeppelin/contracts/governance/TimelockController.sol\";\n\ncontract TimeLock is TimelockController{\n    constructor(\n        uint256 _minDelay,\n        address[] memory _proposers,\n        address[] memory _executors\n    ) TimelockController(_minDelay, _proposers, _executors){\n        \n    }\n}",
  "sourcePath": "/Users/ybotwe/Desktop/Gyidi/Gyidi backend/DAB/contracts/Timelock.sol",
  "compiler": {
    "name": "solc",
    "version": "0.8.12+commit.f00d7308.Emscripten.clang"
  },
  "schemaVersion": "3.4.6",
  "updatedAt": "2022-05-21T21:54:24.633Z",
  "networkType": "ethereum",
  "devdoc": {
    "kind": "dev",
    "methods": {
      "cancel(bytes32)": {
        "details": "Cancel an operation. Requirements: - the caller must have the 'canceller' role."
      },
      "execute(address,uint256,bytes,bytes32,bytes32)": {
        "details": "Execute an (ready) operation containing a single transaction. Emits a {CallExecuted} event. Requirements: - the caller must have the 'executor' role."
      },
      "executeBatch(address[],uint256[],bytes[],bytes32,bytes32)": {
        "details": "Execute an (ready) operation containing a batch of transactions. Emits one {CallExecuted} event per transaction in the batch. Requirements: - the caller must have the 'executor' role."
      },
      "getMinDelay()": {
        "details": "Returns the minimum delay for an operation to become valid. This value can be changed by executing an operation that calls `updateDelay`."
      },
      "getRoleAdmin(bytes32)": {
        "details": "Returns the admin role that controls `role`. See {grantRole} and {revokeRole}. To change a role's admin, use {_setRoleAdmin}."
      },
      "getTimestamp(bytes32)": {
        "details": "Returns the timestamp at with an operation becomes ready (0 for unset operations, 1 for done operations)."
      },
      "grantRole(bytes32,address)": {
        "details": "Grants `role` to `account`. If `account` had not been already granted `role`, emits a {RoleGranted} event. Requirements: - the caller must have ``role``'s admin role."
      },
      "hasRole(bytes32,address)": {
        "details": "Returns `true` if `account` has been granted `role`."
      },
      "hashOperation(address,uint256,bytes,bytes32,bytes32)": {
        "details": "Returns the identifier of an operation containing a single transaction."
      },
      "hashOperationBatch(address[],uint256[],bytes[],bytes32,bytes32)": {
        "details": "Returns the identifier of an operation containing a batch of transactions."
      },
      "isOperation(bytes32)": {
        "details": "Returns whether an id correspond to a registered operation. This includes both Pending, Ready and Done operations."
      },
      "isOperationDone(bytes32)": {
        "details": "Returns whether an operation is done or not."
      },
      "isOperationPending(bytes32)": {
        "details": "Returns whether an operation is pending or not."
      },
      "isOperationReady(bytes32)": {
        "details": "Returns whether an operation is ready or not."
      },
      "onERC1155BatchReceived(address,address,uint256[],uint256[],bytes)": {
        "details": "See {IERC1155Receiver-onERC1155BatchReceived}."
      },
      "onERC1155Received(address,address,uint256,uint256,bytes)": {
        "details": "See {IERC1155Receiver-onERC1155Received}."
      },
      "onERC721Received(address,address,uint256,bytes)": {
        "details": "See {IERC721Receiver-onERC721Received}."
      },
      "renounceRole(bytes32,address)": {
        "details": "Revokes `role` from the calling account. Roles are often managed via {grantRole} and {revokeRole}: this function's purpose is to provide a mechanism for accounts to lose their privileges if they are compromised (such as when a trusted device is misplaced). If the calling account had been revoked `role`, emits a {RoleRevoked} event. Requirements: - the caller must be `account`."
      },
      "revokeRole(bytes32,address)": {
        "details": "Revokes `role` from `account`. If `account` had been granted `role`, emits a {RoleRevoked} event. Requirements: - the caller must have ``role``'s admin role."
      },
      "schedule(address,uint256,bytes,bytes32,bytes32,uint256)": {
        "details": "Schedule an operation containing a single transaction. Emits a {CallScheduled} event. Requirements: - the caller must have the 'proposer' role."
      },
      "scheduleBatch(address[],uint256[],bytes[],bytes32,bytes32,uint256)": {
        "details": "Schedule an operation containing a batch of transactions. Emits one {CallScheduled} event per transaction in the batch. Requirements: - the caller must have the 'proposer' role."
      },
      "supportsInterface(bytes4)": {
        "details": "See {IERC165-supportsInterface}."
      },
      "updateDelay(uint256)": {
        "details": "Changes the minimum timelock duration for future operations. Emits a {MinDelayChange} event. Requirements: - the caller must be the timelock itself. This can only be achieved by scheduling and later executing an operation where the timelock is the target and the data is the ABI-encoded call to this function."
      }
    },
    "version": 1
  },
  "userdoc": {
    "kind": "user",
    "methods": {},
    "version": 1
  }
}