{
  "contractName": "Token",
  "abi": [
    {
      "inputs": [
        {
          "internalType": "string",
          "name": "_name",
          "type": "string"
        },
        {
          "internalType": "string",
          "name": "_symbol",
          "type": "string"
        }
      ],
      "stateMutability": "nonpayable",
      "type": "constructor"
    },
    {
      "anonymous": false,
      "inputs": [
        {
          "indexed": true,
          "internalType": "address",
          "name": "owner",
          "type": "address"
        },
        {
          "indexed": true,
          "internalType": "address",
          "name": "approved",
          "type": "address"
        },
        {
          "indexed": true,
          "internalType": "uint256",
          "name": "tokenId",
          "type": "uint256"
        }
      ],
      "name": "Approval",
      "type": "event"
    },
    {
      "anonymous": false,
      "inputs": [
        {
          "indexed": true,
          "internalType": "address",
          "name": "owner",
          "type": "address"
        },
        {
          "indexed": true,
          "internalType": "address",
          "name": "operator",
          "type": "address"
        },
        {
          "indexed": false,
          "internalType": "bool",
          "name": "approved",
          "type": "bool"
        }
      ],
      "name": "ApprovalForAll",
      "type": "event"
    },
    {
      "anonymous": false,
      "inputs": [
        {
          "indexed": true,
          "internalType": "address",
          "name": "delegator",
          "type": "address"
        },
        {
          "indexed": true,
          "internalType": "address",
          "name": "fromDelegate",
          "type": "address"
        },
        {
          "indexed": true,
          "internalType": "address",
          "name": "toDelegate",
          "type": "address"
        }
      ],
      "name": "DelegateChanged",
      "type": "event"
    },
    {
      "anonymous": false,
      "inputs": [
        {
          "indexed": true,
          "internalType": "address",
          "name": "delegate",
          "type": "address"
        },
        {
          "indexed": false,
          "internalType": "uint256",
          "name": "previousBalance",
          "type": "uint256"
        },
        {
          "indexed": false,
          "internalType": "uint256",
          "name": "newBalance",
          "type": "uint256"
        }
      ],
      "name": "DelegateVotesChanged",
      "type": "event"
    },
    {
      "anonymous": false,
      "inputs": [
        {
          "indexed": true,
          "internalType": "address",
          "name": "previousOwner",
          "type": "address"
        },
        {
          "indexed": true,
          "internalType": "address",
          "name": "newOwner",
          "type": "address"
        }
      ],
      "name": "OwnershipTransferred",
      "type": "event"
    },
    {
      "anonymous": false,
      "inputs": [
        {
          "indexed": true,
          "internalType": "address",
          "name": "from",
          "type": "address"
        },
        {
          "indexed": true,
          "internalType": "address",
          "name": "to",
          "type": "address"
        },
        {
          "indexed": true,
          "internalType": "uint256",
          "name": "tokenId",
          "type": "uint256"
        }
      ],
      "name": "Transfer",
      "type": "event"
    },
    {
      "inputs": [],
      "name": "DOMAIN_SEPARATOR",
      "outputs": [
        {
          "internalType": "bytes32",
          "name": "",
          "type": "bytes32"
        }
      ],
      "stateMutability": "view",
      "type": "function",
      "constant": true
    },
    {
      "inputs": [
        {
          "internalType": "address",
          "name": "to",
          "type": "address"
        },
        {
          "internalType": "uint256",
          "name": "tokenId",
          "type": "uint256"
        }
      ],
      "name": "approve",
      "outputs": [],
      "stateMutability": "nonpayable",
      "type": "function"
    },
    {
      "inputs": [
        {
          "internalType": "address",
          "name": "owner",
          "type": "address"
        }
      ],
      "name": "balanceOf",
      "outputs": [
        {
          "internalType": "uint256",
          "name": "",
          "type": "uint256"
        }
      ],
      "stateMutability": "view",
      "type": "function",
      "constant": true
    },
    {
      "inputs": [
        {
          "internalType": "address",
          "name": "delegatee",
          "type": "address"
        }
      ],
      "name": "delegate",
      "outputs": [],
      "stateMutability": "nonpayable",
      "type": "function"
    },
    {
      "inputs": [
        {
          "internalType": "address",
          "name": "delegatee",
          "type": "address"
        },
        {
          "internalType": "uint256",
          "name": "nonce",
          "type": "uint256"
        },
        {
          "internalType": "uint256",
          "name": "expiry",
          "type": "uint256"
        },
        {
          "internalType": "uint8",
          "name": "v",
          "type": "uint8"
        },
        {
          "internalType": "bytes32",
          "name": "r",
          "type": "bytes32"
        },
        {
          "internalType": "bytes32",
          "name": "s",
          "type": "bytes32"
        }
      ],
      "name": "delegateBySig",
      "outputs": [],
      "stateMutability": "nonpayable",
      "type": "function"
    },
    {
      "inputs": [
        {
          "internalType": "address",
          "name": "account",
          "type": "address"
        }
      ],
      "name": "delegates",
      "outputs": [
        {
          "internalType": "address",
          "name": "",
          "type": "address"
        }
      ],
      "stateMutability": "view",
      "type": "function",
      "constant": true
    },
    {
      "inputs": [
        {
          "internalType": "uint256",
          "name": "tokenId",
          "type": "uint256"
        }
      ],
      "name": "getApproved",
      "outputs": [
        {
          "internalType": "address",
          "name": "",
          "type": "address"
        }
      ],
      "stateMutability": "view",
      "type": "function",
      "constant": true
    },
    {
      "inputs": [
        {
          "internalType": "uint256",
          "name": "blockNumber",
          "type": "uint256"
        }
      ],
      "name": "getPastTotalSupply",
      "outputs": [
        {
          "internalType": "uint256",
          "name": "",
          "type": "uint256"
        }
      ],
      "stateMutability": "view",
      "type": "function",
      "constant": true
    },
    {
      "inputs": [
        {
          "internalType": "address",
          "name": "account",
          "type": "address"
        },
        {
          "internalType": "uint256",
          "name": "blockNumber",
          "type": "uint256"
        }
      ],
      "name": "getPastVotes",
      "outputs": [
        {
          "internalType": "uint256",
          "name": "",
          "type": "uint256"
        }
      ],
      "stateMutability": "view",
      "type": "function",
      "constant": true
    },
    {
      "inputs": [
        {
          "internalType": "address",
          "name": "account",
          "type": "address"
        }
      ],
      "name": "getVotes",
      "outputs": [
        {
          "internalType": "uint256",
          "name": "",
          "type": "uint256"
        }
      ],
      "stateMutability": "view",
      "type": "function",
      "constant": true
    },
    {
      "inputs": [
        {
          "internalType": "address",
          "name": "owner",
          "type": "address"
        },
        {
          "internalType": "address",
          "name": "operator",
          "type": "address"
        }
      ],
      "name": "isApprovedForAll",
      "outputs": [
        {
          "internalType": "bool",
          "name": "",
          "type": "bool"
        }
      ],
      "stateMutability": "view",
      "type": "function",
      "constant": true
    },
    {
      "inputs": [],
      "name": "name",
      "outputs": [
        {
          "internalType": "string",
          "name": "",
          "type": "string"
        }
      ],
      "stateMutability": "view",
      "type": "function",
      "constant": true
    },
    {
      "inputs": [
        {
          "internalType": "address",
          "name": "owner",
          "type": "address"
        }
      ],
      "name": "nonces",
      "outputs": [
        {
          "internalType": "uint256",
          "name": "",
          "type": "uint256"
        }
      ],
      "stateMutability": "view",
      "type": "function",
      "constant": true
    },
    {
      "inputs": [],
      "name": "owner",
      "outputs": [
        {
          "internalType": "address",
          "name": "",
          "type": "address"
        }
      ],
      "stateMutability": "view",
      "type": "function",
      "constant": true
    },
    {
      "inputs": [
        {
          "internalType": "uint256",
          "name": "tokenId",
          "type": "uint256"
        }
      ],
      "name": "ownerOf",
      "outputs": [
        {
          "internalType": "address",
          "name": "",
          "type": "address"
        }
      ],
      "stateMutability": "view",
      "type": "function",
      "constant": true
    },
    {
      "inputs": [],
      "name": "renounceOwnership",
      "outputs": [],
      "stateMutability": "nonpayable",
      "type": "function"
    },
    {
      "inputs": [
        {
          "internalType": "address",
          "name": "from",
          "type": "address"
        },
        {
          "internalType": "address",
          "name": "to",
          "type": "address"
        },
        {
          "internalType": "uint256",
          "name": "tokenId",
          "type": "uint256"
        }
      ],
      "name": "safeTransferFrom",
      "outputs": [],
      "stateMutability": "nonpayable",
      "type": "function"
    },
    {
      "inputs": [
        {
          "internalType": "address",
          "name": "from",
          "type": "address"
        },
        {
          "internalType": "address",
          "name": "to",
          "type": "address"
        },
        {
          "internalType": "uint256",
          "name": "tokenId",
          "type": "uint256"
        },
        {
          "internalType": "bytes",
          "name": "_data",
          "type": "bytes"
        }
      ],
      "name": "safeTransferFrom",
      "outputs": [],
      "stateMutability": "nonpayable",
      "type": "function"
    },
    {
      "inputs": [
        {
          "internalType": "address",
          "name": "operator",
          "type": "address"
        },
        {
          "internalType": "bool",
          "name": "approved",
          "type": "bool"
        }
      ],
      "name": "setApprovalForAll",
      "outputs": [],
      "stateMutability": "nonpayable",
      "type": "function"
    },
    {
      "inputs": [
        {
          "internalType": "bytes4",
          "name": "interfaceId",
          "type": "bytes4"
        }
      ],
      "name": "supportsInterface",
      "outputs": [
        {
          "internalType": "bool",
          "name": "",
          "type": "bool"
        }
      ],
      "stateMutability": "view",
      "type": "function",
      "constant": true
    },
    {
      "inputs": [],
      "name": "symbol",
      "outputs": [
        {
          "internalType": "string",
          "name": "",
          "type": "string"
        }
      ],
      "stateMutability": "view",
      "type": "function",
      "constant": true
    },
    {
      "inputs": [
        {
          "internalType": "uint256",
          "name": "tokenId",
          "type": "uint256"
        }
      ],
      "name": "tokenURI",
      "outputs": [
        {
          "internalType": "string",
          "name": "",
          "type": "string"
        }
      ],
      "stateMutability": "view",
      "type": "function",
      "constant": true
    },
    {
      "inputs": [
        {
          "internalType": "address",
          "name": "from",
          "type": "address"
        },
        {
          "internalType": "address",
          "name": "to",
          "type": "address"
        },
        {
          "internalType": "uint256",
          "name": "tokenId",
          "type": "uint256"
        }
      ],
      "name": "transferFrom",
      "outputs": [],
      "stateMutability": "nonpayable",
      "type": "function"
    },
    {
      "inputs": [
        {
          "internalType": "address",
          "name": "newOwner",
          "type": "address"
        }
      ],
      "name": "transferOwnership",
      "outputs": [],
      "stateMutability": "nonpayable",
      "type": "function"
    },
    {
      "inputs": [],
      "name": "getTotalSupply",
      "outputs": [
        {
          "internalType": "uint256",
          "name": "",
          "type": "uint256"
        }
      ],
      "stateMutability": "view",
      "type": "function",
      "constant": true
    },
    {
      "inputs": [
        {
          "internalType": "address",
          "name": "userAccount",
          "type": "address"
        },
        {
          "internalType": "uint256",
          "name": "tokenId",
          "type": "uint256"
        }
      ],
      "name": "mint",
      "outputs": [],
      "stateMutability": "nonpayable",
      "type": "function"
    },
    {
      "inputs": [
        {
          "internalType": "uint256",
          "name": "tokenId",
          "type": "uint256"
        }
      ],
      "name": "burn",
      "outputs": [],
      "stateMutability": "nonpayable",
      "type": "function"
    }
  ],
  "bytecode": "0x6101406040523480156200001257600080fd5b5060405162004f3038038062004f308339818101604052810190620000389190620004d6565b816040518060400160405280600181526020017f3100000000000000000000000000000000000000000000000000000000000000815250838381600090805190602001906200008992919062000289565b508060019080519060200190620000a292919062000289565b50505060008280519060200120905060008280519060200120905060007f8b73c3c69bb8fe3d512ecc4cf759cc79239f7b179b0ffacaa9a75d522b39400f90508260e081815250508161010081815250504660a081815250506200010e8184846200017f60201b60201c565b608081815250503073ffffffffffffffffffffffffffffffffffffffff1660c08173ffffffffffffffffffffffffffffffffffffffff16815250508061012081815250505050505050620001776200016b620001bb60201b60201c565b620001c360201b60201c565b505062000698565b600083838346306040516020016200019c959493929190620005d6565b6040516020818303038152906040528051906020012090509392505050565b600033905090565b6000600a60009054906101000a900473ffffffffffffffffffffffffffffffffffffffff16905081600a60006101000a81548173ffffffffffffffffffffffffffffffffffffffff021916908373ffffffffffffffffffffffffffffffffffffffff1602179055508173ffffffffffffffffffffffffffffffffffffffff168173ffffffffffffffffffffffffffffffffffffffff167f8be0079c531659141344cd1fd0a4f28419497f9722a3daafe3b4186f6b6457e060405160405180910390a35050565b828054620002979062000662565b90600052602060002090601f016020900481019282620002bb576000855562000307565b82601f10620002d657805160ff191683800117855562000307565b8280016001018555821562000307579182015b8281111562000306578251825591602001919060010190620002e9565b5b5090506200031691906200031a565b5090565b5b80821115620003355760008160009055506001016200031b565b5090565b6000604051905090565b600080fd5b600080fd5b600080fd5b600080fd5b6000601f19601f8301169050919050565b7f4e487b7100000000000000000000000000000000000000000000000000000000600052604160045260246000fd5b620003a28262000357565b810181811067ffffffffffffffff82111715620003c457620003c362000368565b5b80604052505050565b6000620003d962000339565b9050620003e7828262000397565b919050565b600067ffffffffffffffff8211156200040a576200040962000368565b5b620004158262000357565b9050602081019050919050565b60005b838110156200044257808201518184015260208101905062000425565b8381111562000452576000848401525b50505050565b60006200046f6200046984620003ec565b620003cd565b9050828152602081018484840111156200048e576200048d62000352565b5b6200049b84828562000422565b509392505050565b600082601f830112620004bb57620004ba6200034d565b5b8151620004cd84826020860162000458565b91505092915050565b60008060408385031215620004f057620004ef62000343565b5b600083015167ffffffffffffffff81111562000511576200051062000348565b5b6200051f85828601620004a3565b925050602083015167ffffffffffffffff81111562000543576200054262000348565b5b6200055185828601620004a3565b9150509250929050565b6000819050919050565b62000570816200055b565b82525050565b6000819050919050565b6200058b8162000576565b82525050565b600073ffffffffffffffffffffffffffffffffffffffff82169050919050565b6000620005be8262000591565b9050919050565b620005d081620005b1565b82525050565b600060a082019050620005ed600083018862000565565b620005fc602083018762000565565b6200060b604083018662000565565b6200061a606083018562000580565b620006296080830184620005c5565b9695505050505050565b7f4e487b7100000000000000000000000000000000000000000000000000000000600052602260045260246000fd5b600060028204905060018216806200067b57607f821691505b6020821081141562000692576200069162000633565b5b50919050565b60805160a05160c05160e0516101005161012051614848620006e860003960006117fb0152600061183d0152600061181c01526000611751015260006117a7015260006117d001526148486000f3fe608060405234801561001057600080fd5b50600436106101a95760003560e01c806370a08231116100f9578063a22cb46511610097578063c4e41b2211610071578063c4e41b22146104dc578063c87b56dd146104fa578063e985e9c51461052a578063f2fde38b1461055a576101a9565b8063a22cb46514610488578063b88d4fde146104a4578063c3cda520146104c0576101a9565b80638da5cb5b116100d35780638da5cb5b146103ec5780638e539e8c1461040a57806395d89b411461043a5780639ab24eb014610458576101a9565b806370a0823114610382578063715018a6146103b25780637ecebe00146103bc576101a9565b80633a46b1a81161016657806342966c681161014057806342966c68146102ea578063587cde1e146103065780635c19a95c146103365780636352211e14610352576101a9565b80633a46b1a81461028257806340c10f19146102b257806342842e0e146102ce576101a9565b806301ffc9a7146101ae57806306fdde03146101de578063081812fc146101fc578063095ea7b31461022c57806323b872dd146102485780633644e51514610264575b600080fd5b6101c860048036038101906101c39190612eef565b610576565b6040516101d59190612f37565b60405180910390f35b6101e6610658565b6040516101f39190612feb565b60405180910390f35b61021660048036038101906102119190613043565b6106ea565b60405161022391906130b1565b60405180910390f35b610246600480360381019061024191906130f8565b61076f565b005b610262600480360381019061025d9190613138565b610887565b005b61026c6108e7565b60405161027991906131a4565b60405180910390f35b61029c600480360381019061029791906130f8565b6108f6565b6040516102a991906131ce565b60405180910390f35b6102cc60048036038101906102c791906130f8565b610951565b005b6102e860048036038101906102e39190613138565b6109db565b005b61030460048036038101906102ff9190613043565b6109fb565b005b610320600480360381019061031b91906131e9565b610a83565b60405161032d91906130b1565b60405180910390f35b610350600480360381019061034b91906131e9565b610aec565b005b61036c60048036038101906103679190613043565b610b06565b60405161037991906130b1565b60405180910390f35b61039c600480360381019061039791906131e9565b610bb8565b6040516103a991906131ce565b60405180910390f35b6103ba610c70565b005b6103d660048036038101906103d191906131e9565b610cf8565b6040516103e391906131ce565b60405180910390f35b6103f4610d48565b60405161040191906130b1565b60405180910390f35b610424600480360381019061041f9190613043565b610d72565b60405161043191906131ce565b60405180910390f35b610442610dd1565b60405161044f9190612feb565b60405180910390f35b610472600480360381019061046d91906131e9565b610e63565b60405161047f91906131ce565b60405180910390f35b6104a2600480360381019061049d9190613242565b610eb3565b005b6104be60048036038101906104b991906133b7565b610ec9565b005b6104da60048036038101906104d5919061349f565b610f2b565b005b6104e461102f565b6040516104f191906131ce565b60405180910390f35b610514600480360381019061050f9190613043565b61103e565b6040516105219190612feb565b60405180910390f35b610544600480360381019061053f919061352c565b6110e5565b6040516105519190612f37565b60405180910390f35b610574600480360381019061056f91906131e9565b611179565b005b60007f80ac58cd000000000000000000000000000000000000000000000000000000007bffffffffffffffffffffffffffffffffffffffffffffffffffffffff1916827bffffffffffffffffffffffffffffffffffffffffffffffffffffffff1916148061064157507f5b5e139f000000000000000000000000000000000000000000000000000000007bffffffffffffffffffffffffffffffffffffffffffffffffffffffff1916827bffffffffffffffffffffffffffffffffffffffffffffffffffffffff1916145b80610651575061065082611271565b5b9050919050565b6060600080546106679061359b565b80601f01602080910402602001604051908101604052809291908181526020018280546106939061359b565b80156106e05780601f106106b5576101008083540402835291602001916106e0565b820191906000526020600020905b8154815290600101906020018083116106c357829003601f168201915b5050505050905090565b60006106f5826112db565b610734576040517f08c379a000000000000000000000000000000000000000000000000000000000815260040161072b9061363f565b60405180910390fd5b6004600083815260200190815260200160002060009054906101000a900473ffffffffffffffffffffffffffffffffffffffff169050919050565b600061077a82610b06565b90508073ffffffffffffffffffffffffffffffffffffffff168373ffffffffffffffffffffffffffffffffffffffff1614156107eb576040517f08c379a00000000000000000000000000000000000000000000000000000000081526004016107e2906136d1565b60405180910390fd5b8073ffffffffffffffffffffffffffffffffffffffff1661080a611347565b73ffffffffffffffffffffffffffffffffffffffff161480610839575061083881610833611347565b6110e5565b5b610878576040517f08c379a000000000000000000000000000000000000000000000000000000000815260040161086f90613763565b60405180910390fd5b610882838361134f565b505050565b610898610892611347565b82611408565b6108d7576040517f08c379a00000000000000000000000000000000000000000000000000000000081526004016108ce906137f5565b60405180910390fd5b6108e28383836114e6565b505050565b60006108f161174d565b905090565b600061094982600760008673ffffffffffffffffffffffffffffffffffffffff1673ffffffffffffffffffffffffffffffffffffffff16815260200190815260200160002061186790919063ffffffff16565b905092915050565b610959611347565b73ffffffffffffffffffffffffffffffffffffffff16610977610d48565b73ffffffffffffffffffffffffffffffffffffffff16146109cd576040517f08c379a00000000000000000000000000000000000000000000000000000000081526004016109c490613861565b60405180910390fd5b6109d782826119bf565b5050565b6109f683838360405180602001604052806000815250610ec9565b505050565b610a03611347565b73ffffffffffffffffffffffffffffffffffffffff16610a21610d48565b73ffffffffffffffffffffffffffffffffffffffff1614610a77576040517f08c379a0000000000000000000000000000000000000000000000000000000008152600401610a6e90613861565b60405180910390fd5b610a8081611b99565b50565b6000600660008373ffffffffffffffffffffffffffffffffffffffff1673ffffffffffffffffffffffffffffffffffffffff16815260200190815260200160002060009054906101000a900473ffffffffffffffffffffffffffffffffffffffff169050919050565b6000610af6611347565b9050610b028183611cb6565b5050565b6000806002600084815260200190815260200160002060009054906101000a900473ffffffffffffffffffffffffffffffffffffffff169050600073ffffffffffffffffffffffffffffffffffffffff168173ffffffffffffffffffffffffffffffffffffffff161415610baf576040517f08c379a0000000000000000000000000000000000000000000000000000000008152600401610ba6906138f3565b60405180910390fd5b80915050919050565b60008073ffffffffffffffffffffffffffffffffffffffff168273ffffffffffffffffffffffffffffffffffffffff161415610c29576040517f08c379a0000000000000000000000000000000000000000000000000000000008152600401610c2090613985565b60405180910390fd5b600360008373ffffffffffffffffffffffffffffffffffffffff1673ffffffffffffffffffffffffffffffffffffffff168152602001908152602001600020549050919050565b610c78611347565b73ffffffffffffffffffffffffffffffffffffffff16610c96610d48565b73ffffffffffffffffffffffffffffffffffffffff1614610cec576040517f08c379a0000000000000000000000000000000000000000000000000000000008152600401610ce390613861565b60405180910390fd5b610cf66000611dca565b565b6000610d41600960008473ffffffffffffffffffffffffffffffffffffffff1673ffffffffffffffffffffffffffffffffffffffff168152602001908152602001600020611e90565b9050919050565b6000600a60009054906101000a900473ffffffffffffffffffffffffffffffffffffffff16905090565b6000438210610db6576040517f08c379a0000000000000000000000000000000000000000000000000000000008152600401610dad906139f1565b60405180910390fd5b610dca82600861186790919063ffffffff16565b9050919050565b606060018054610de09061359b565b80601f0160208091040260200160405190810160405280929190818152602001828054610e0c9061359b565b8015610e595780601f10610e2e57610100808354040283529160200191610e59565b820191906000526020600020905b815481529060010190602001808311610e3c57829003601f168201915b5050505050905090565b6000610eac600760008473ffffffffffffffffffffffffffffffffffffffff1673ffffffffffffffffffffffffffffffffffffffff168152602001908152602001600020611e9e565b9050919050565b610ec5610ebe611347565b8383611f39565b5050565b610eda610ed4611347565b83611408565b610f19576040517f08c379a0000000000000000000000000000000000000000000000000000000008152600401610f10906137f5565b60405180910390fd5b610f25848484846120a6565b50505050565b83421115610f6e576040517f08c379a0000000000000000000000000000000000000000000000000000000008152600401610f6590613a5d565b60405180910390fd5b6000610fd0610fc87fe48329057bfd03d55e49b547132e39cffd9c1820ad7b9d4c5307691425d15adf898989604051602001610fad9493929190613a7d565b60405160208183030381529060405280519060200120612102565b85858561211c565b9050610fdb81612147565b861461101c576040517f08c379a000000000000000000000000000000000000000000000000000000000815260040161101390613b0e565b60405180910390fd5b6110268188611cb6565b50505050505050565b60006110396121a5565b905090565b6060611049826112db565b611088576040517f08c379a000000000000000000000000000000000000000000000000000000000815260040161107f90613ba0565b60405180910390fd5b60006110926121b6565b905060008151116110b257604051806020016040528060008152506110dd565b806110bc846121cd565b6040516020016110cd929190613bfc565b6040516020818303038152906040525b915050919050565b6000600560008473ffffffffffffffffffffffffffffffffffffffff1673ffffffffffffffffffffffffffffffffffffffff16815260200190815260200160002060008373ffffffffffffffffffffffffffffffffffffffff1673ffffffffffffffffffffffffffffffffffffffff16815260200190815260200160002060009054906101000a900460ff16905092915050565b611181611347565b73ffffffffffffffffffffffffffffffffffffffff1661119f610d48565b73ffffffffffffffffffffffffffffffffffffffff16146111f5576040517f08c379a00000000000000000000000000000000000000000000000000000000081526004016111ec90613861565b60405180910390fd5b600073ffffffffffffffffffffffffffffffffffffffff168173ffffffffffffffffffffffffffffffffffffffff161415611265576040517f08c379a000000000000000000000000000000000000000000000000000000000815260040161125c90613c92565b60405180910390fd5b61126e81611dca565b50565b60007f01ffc9a7000000000000000000000000000000000000000000000000000000007bffffffffffffffffffffffffffffffffffffffffffffffffffffffff1916827bffffffffffffffffffffffffffffffffffffffffffffffffffffffff1916149050919050565b60008073ffffffffffffffffffffffffffffffffffffffff166002600084815260200190815260200160002060009054906101000a900473ffffffffffffffffffffffffffffffffffffffff1673ffffffffffffffffffffffffffffffffffffffff1614159050919050565b600033905090565b816004600083815260200190815260200160002060006101000a81548173ffffffffffffffffffffffffffffffffffffffff021916908373ffffffffffffffffffffffffffffffffffffffff160217905550808273ffffffffffffffffffffffffffffffffffffffff166113c283610b06565b73ffffffffffffffffffffffffffffffffffffffff167f8c5be1e5ebec7d5bd14f71427d1e84f3dd0314c0f7b2291e5b200ac8c7c3b92560405160405180910390a45050565b6000611413826112db565b611452576040517f08c379a000000000000000000000000000000000000000000000000000000000815260040161144990613d24565b60405180910390fd5b600061145d83610b06565b90508073ffffffffffffffffffffffffffffffffffffffff168473ffffffffffffffffffffffffffffffffffffffff16148061149f575061149e81856110e5565b5b806114dd57508373ffffffffffffffffffffffffffffffffffffffff166114c5846106ea565b73ffffffffffffffffffffffffffffffffffffffff16145b91505092915050565b8273ffffffffffffffffffffffffffffffffffffffff1661150682610b06565b73ffffffffffffffffffffffffffffffffffffffff161461155c576040517f08c379a000000000000000000000000000000000000000000000000000000000815260040161155390613db6565b60405180910390fd5b600073ffffffffffffffffffffffffffffffffffffffff168273ffffffffffffffffffffffffffffffffffffffff1614156115cc576040517f08c379a00000000000000000000000000000000000000000000000000000000081526004016115c390613e48565b60405180910390fd5b6115d783838361232e565b6115e260008261134f565b6001600360008573ffffffffffffffffffffffffffffffffffffffff1673ffffffffffffffffffffffffffffffffffffffff16815260200190815260200160002060008282546116329190613e97565b925050819055506001600360008473ffffffffffffffffffffffffffffffffffffffff1673ffffffffffffffffffffffffffffffffffffffff16815260200190815260200160002060008282546116899190613ecb565b92505081905550816002600083815260200190815260200160002060006101000a81548173ffffffffffffffffffffffffffffffffffffffff021916908373ffffffffffffffffffffffffffffffffffffffff160217905550808273ffffffffffffffffffffffffffffffffffffffff168473ffffffffffffffffffffffffffffffffffffffff167fddf252ad1be2c89b69c2b068fc378daa952ba7f163c4a11628f55a4df523b3ef60405160405180910390a4611748838383612333565b505050565b60007f000000000000000000000000000000000000000000000000000000000000000073ffffffffffffffffffffffffffffffffffffffff163073ffffffffffffffffffffffffffffffffffffffff161480156117c957507f000000000000000000000000000000000000000000000000000000000000000046145b156117f6577f00000000000000000000000000000000000000000000000000000000000000009050611864565b6118617f00000000000000000000000000000000000000000000000000000000000000007f00000000000000000000000000000000000000000000000000000000000000007f000000000000000000000000000000000000000000000000000000000000000061234f565b90505b90565b60004382106118ab576040517f08c379a00000000000000000000000000000000000000000000000000000000081526004016118a290613f6d565b60405180910390fd5b60008360000180549050905060005b8181101561192f5760006118ce8284612389565b9050848660000182815481106118e7576118e6613f8d565b5b9060005260206000200160000160009054906101000a900463ffffffff1663ffffffff16111561191957809250611929565b6001816119269190613ecb565b91505b506118ba565b6000821461199457846000016001836119489190613e97565b8154811061195957611958613f8d565b5b9060005260206000200160000160049054906101000a90047bffffffffffffffffffffffffffffffffffffffffffffffffffffffff16611997565b60005b7bffffffffffffffffffffffffffffffffffffffffffffffffffffffff169250505092915050565b600073ffffffffffffffffffffffffffffffffffffffff168273ffffffffffffffffffffffffffffffffffffffff161415611a2f576040517f08c379a0000000000000000000000000000000000000000000000000000000008152600401611a2690614008565b60405180910390fd5b611a38816112db565b15611a78576040517f08c379a0000000000000000000000000000000000000000000000000000000008152600401611a6f90614074565b60405180910390fd5b611a846000838361232e565b6001600360008473ffffffffffffffffffffffffffffffffffffffff1673ffffffffffffffffffffffffffffffffffffffff1681526020019081526020016000206000828254611ad49190613ecb565b92505081905550816002600083815260200190815260200160002060006101000a81548173ffffffffffffffffffffffffffffffffffffffff021916908373ffffffffffffffffffffffffffffffffffffffff160217905550808273ffffffffffffffffffffffffffffffffffffffff16600073ffffffffffffffffffffffffffffffffffffffff167fddf252ad1be2c89b69c2b068fc378daa952ba7f163c4a11628f55a4df523b3ef60405160405180910390a4611b9560008383612333565b5050565b6000611ba482610b06565b9050611bb28160008461232e565b611bbd60008361134f565b6001600360008373ffffffffffffffffffffffffffffffffffffffff1673ffffffffffffffffffffffffffffffffffffffff1681526020019081526020016000206000828254611c0d9190613e97565b925050819055506002600083815260200190815260200160002060006101000a81549073ffffffffffffffffffffffffffffffffffffffff021916905581600073ffffffffffffffffffffffffffffffffffffffff168273ffffffffffffffffffffffffffffffffffffffff167fddf252ad1be2c89b69c2b068fc378daa952ba7f163c4a11628f55a4df523b3ef60405160405180910390a4611cb281600084612333565b5050565b6000611cc183610a83565b905081600660008573ffffffffffffffffffffffffffffffffffffffff1673ffffffffffffffffffffffffffffffffffffffff16815260200190815260200160002060006101000a81548173ffffffffffffffffffffffffffffffffffffffff021916908373ffffffffffffffffffffffffffffffffffffffff1602179055508173ffffffffffffffffffffffffffffffffffffffff168173ffffffffffffffffffffffffffffffffffffffff168473ffffffffffffffffffffffffffffffffffffffff167f3134e8a2e6d97e929a7e54011ea5485d7d196dd5f0ba4d4ef95803e8e3fc257f60405160405180910390a4611dc58183611dc0866123af565b6123c1565b505050565b6000600a60009054906101000a900473ffffffffffffffffffffffffffffffffffffffff16905081600a60006101000a81548173ffffffffffffffffffffffffffffffffffffffff021916908373ffffffffffffffffffffffffffffffffffffffff1602179055508173ffffffffffffffffffffffffffffffffffffffff168173ffffffffffffffffffffffffffffffffffffffff167f8be0079c531659141344cd1fd0a4f28419497f9722a3daafe3b4186f6b6457e060405160405180910390a35050565b600081600001549050919050565b6000808260000180549050905060008114611f105782600001600182611ec49190613e97565b81548110611ed557611ed4613f8d565b5b9060005260206000200160000160049054906101000a90047bffffffffffffffffffffffffffffffffffffffffffffffffffffffff16611f13565b60005b7bffffffffffffffffffffffffffffffffffffffffffffffffffffffff16915050919050565b8173ffffffffffffffffffffffffffffffffffffffff168373ffffffffffffffffffffffffffffffffffffffff161415611fa8576040517f08c379a0000000000000000000000000000000000000000000000000000000008152600401611f9f906140e0565b60405180910390fd5b80600560008573ffffffffffffffffffffffffffffffffffffffff1673ffffffffffffffffffffffffffffffffffffffff16815260200190815260200160002060008473ffffffffffffffffffffffffffffffffffffffff1673ffffffffffffffffffffffffffffffffffffffff16815260200190815260200160002060006101000a81548160ff0219169083151502179055508173ffffffffffffffffffffffffffffffffffffffff168373ffffffffffffffffffffffffffffffffffffffff167f17307eab39ab6107e8899845ad3d59bd9653f200f220920489ca2b5937696c31836040516120999190612f37565b60405180910390a3505050565b6120b18484846114e6565b6120bd848484846125ce565b6120fc576040517f08c379a00000000000000000000000000000000000000000000000000000000081526004016120f390614172565b60405180910390fd5b50505050565b600061211561210f61174d565b83612756565b9050919050565b600080600061212d87878787612789565b9150915061213a81612896565b8192505050949350505050565b600080600960008473ffffffffffffffffffffffffffffffffffffffff1673ffffffffffffffffffffffffffffffffffffffff168152602001908152602001600020905061219481611e90565b915061219f81612a6b565b50919050565b60006121b16008611e9e565b905090565b606060405180602001604052806000815250905090565b60606000821415612215576040518060400160405280600181526020017f30000000000000000000000000000000000000000000000000000000000000008152509050612329565b600082905060005b6000821461224757808061223090614192565b915050600a82612240919061420a565b915061221d565b60008167ffffffffffffffff8111156122635761226261328c565b5b6040519080825280601f01601f1916602001820160405280156122955781602001600182028036833780820191505090505b5090505b60008514612322576001826122ae9190613e97565b9150600a856122bd919061423b565b60306122c99190613ecb565b60f81b8183815181106122df576122de613f8d565b5b60200101907effffffffffffffffffffffffffffffffffffffffffffffffffffffffffffff1916908160001a905350600a8561231b919061420a565b9450612299565b8093505050505b919050565b505050565b61233f83836001612a81565b61234a838383612b41565b505050565b6000838383463060405160200161236a95949392919061426c565b6040516020818303038152906040528051906020012090509392505050565b6000600282841861239a919061420a565b8284166123a79190613ecb565b905092915050565b60006123ba82610bb8565b9050919050565b8173ffffffffffffffffffffffffffffffffffffffff168373ffffffffffffffffffffffffffffffffffffffff16141580156123fd5750600081115b156125c957600073ffffffffffffffffffffffffffffffffffffffff168373ffffffffffffffffffffffffffffffffffffffff16146124e55760008061248e612b4684600760008973ffffffffffffffffffffffffffffffffffffffff1673ffffffffffffffffffffffffffffffffffffffff168152602001908152602001600020612b5c9092919063ffffffff16565b915091508473ffffffffffffffffffffffffffffffffffffffff167fdec2bacdd2f05b59de34da9b523dff8be42e5e38e818c82fdb0bae774387a72483836040516124da9291906142bf565b60405180910390a250505b600073ffffffffffffffffffffffffffffffffffffffff168273ffffffffffffffffffffffffffffffffffffffff16146125c857600080612571612b8a84600760008873ffffffffffffffffffffffffffffffffffffffff1673ffffffffffffffffffffffffffffffffffffffff168152602001908152602001600020612b5c9092919063ffffffff16565b915091508373ffffffffffffffffffffffffffffffffffffffff167fdec2bacdd2f05b59de34da9b523dff8be42e5e38e818c82fdb0bae774387a72483836040516125bd9291906142bf565b60405180910390a250505b5b505050565b60006125ef8473ffffffffffffffffffffffffffffffffffffffff16612ba0565b15612749578373ffffffffffffffffffffffffffffffffffffffff1663150b7a02612618611347565b8786866040518563ffffffff1660e01b815260040161263a949392919061433d565b6020604051808303816000875af192505050801561267657506040513d601f19601f82011682018060405250810190612673919061439e565b60015b6126f9573d80600081146126a6576040519150601f19603f3d011682016040523d82523d6000602084013e6126ab565b606091505b506000815114156126f1576040517f08c379a00000000000000000000000000000000000000000000000000000000081526004016126e890614172565b60405180910390fd5b805181602001fd5b63150b7a0260e01b7bffffffffffffffffffffffffffffffffffffffffffffffffffffffff1916817bffffffffffffffffffffffffffffffffffffffffffffffffffffffff19161491505061274e565b600190505b949350505050565b6000828260405160200161276b929190614438565b60405160208183030381529060405280519060200120905092915050565b6000807f7fffffffffffffffffffffffffffffff5d576e7357a4501ddfe92f46681b20a08360001c11156127c457600060039150915061288d565b601b8560ff16141580156127dc5750601c8560ff1614155b156127ee57600060049150915061288d565b600060018787878760405160008152602001604052604051612813949392919061447e565b6020604051602081039080840390855afa158015612835573d6000803e3d6000fd5b505050602060405103519050600073ffffffffffffffffffffffffffffffffffffffff168173ffffffffffffffffffffffffffffffffffffffff1614156128845760006001925092505061288d565b80600092509250505b94509492505050565b600060048111156128aa576128a96144c3565b5b8160048111156128bd576128bc6144c3565b5b14156128c857612a68565b600160048111156128dc576128db6144c3565b5b8160048111156128ef576128ee6144c3565b5b1415612930576040517f08c379a00000000000000000000000000000000000000000000000000000000081526004016129279061453e565b60405180910390fd5b60026004811115612944576129436144c3565b5b816004811115612957576129566144c3565b5b1415612998576040517f08c379a000000000000000000000000000000000000000000000000000000000815260040161298f906145aa565b60405180910390fd5b600360048111156129ac576129ab6144c3565b5b8160048111156129bf576129be6144c3565b5b1415612a00576040517f08c379a00000000000000000000000000000000000000000000000000000000081526004016129f79061463c565b60405180910390fd5b600480811115612a1357612a126144c3565b5b816004811115612a2657612a256144c3565b5b1415612a67576040517f08c379a0000000000000000000000000000000000000000000000000000000008152600401612a5e906146ce565b60405180910390fd5b5b50565b6001816000016000828254019250508190555050565b600073ffffffffffffffffffffffffffffffffffffffff168373ffffffffffffffffffffffffffffffffffffffff161415612ad157612ace612b8a826008612b5c9092919063ffffffff16565b50505b600073ffffffffffffffffffffffffffffffffffffffff168273ffffffffffffffffffffffffffffffffffffffff161415612b2157612b1e612b46826008612b5c9092919063ffffffff16565b50505b612b3c612b2d84610a83565b612b3684610a83565b836123c1565b505050565b505050565b60008183612b549190613e97565b905092915050565b600080612b7e85612b79612b6f88611e9e565b868863ffffffff16565b612bc3565b91509150935093915050565b60008183612b989190613ecb565b905092915050565b6000808273ffffffffffffffffffffffffffffffffffffffff163b119050919050565b6000806000846000018054905090506000612bdd86611e9e565b9050600082118015612c3357504386600001600184612bfc9190613e97565b81548110612c0d57612c0c613f8d565b5b9060005260206000200160000160009054906101000a900463ffffffff1663ffffffff16145b15612cc357612c4185612dc5565b86600001600184612c529190613e97565b81548110612c6357612c62613f8d565b5b9060005260206000200160000160046101000a8154817bffffffffffffffffffffffffffffffffffffffffffffffffffffffff02191690837bffffffffffffffffffffffffffffffffffffffffffffffffffffffff160217905550612db6565b856000016040518060400160405280612cdb43612e30565b63ffffffff168152602001612cef88612dc5565b7bffffffffffffffffffffffffffffffffffffffffffffffffffffffff168152509080600181540180825580915050600190039060005260206000200160009091909190915060008201518160000160006101000a81548163ffffffff021916908363ffffffff16021790555060208201518160000160046101000a8154817bffffffffffffffffffffffffffffffffffffffffffffffffffffffff02191690837bffffffffffffffffffffffffffffffffffffffffffffffffffffffff16021790555050505b80859350935050509250929050565b60007bffffffffffffffffffffffffffffffffffffffffffffffffffffffff8016821115612e28576040517f08c379a0000000000000000000000000000000000000000000000000000000008152600401612e1f90614760565b60405180910390fd5b819050919050565b600063ffffffff8016821115612e7b576040517f08c379a0000000000000000000000000000000000000000000000000000000008152600401612e72906147f2565b60405180910390fd5b819050919050565b6000604051905090565b600080fd5b600080fd5b60007fffffffff0000000000000000000000000000000000000000000000000000000082169050919050565b612ecc81612e97565b8114612ed757600080fd5b50565b600081359050612ee981612ec3565b92915050565b600060208284031215612f0557612f04612e8d565b5b6000612f1384828501612eda565b91505092915050565b60008115159050919050565b612f3181612f1c565b82525050565b6000602082019050612f4c6000830184612f28565b92915050565b600081519050919050565b600082825260208201905092915050565b60005b83811015612f8c578082015181840152602081019050612f71565b83811115612f9b576000848401525b50505050565b6000601f19601f8301169050919050565b6000612fbd82612f52565b612fc78185612f5d565b9350612fd7818560208601612f6e565b612fe081612fa1565b840191505092915050565b600060208201905081810360008301526130058184612fb2565b905092915050565b6000819050919050565b6130208161300d565b811461302b57600080fd5b50565b60008135905061303d81613017565b92915050565b60006020828403121561305957613058612e8d565b5b60006130678482850161302e565b91505092915050565b600073ffffffffffffffffffffffffffffffffffffffff82169050919050565b600061309b82613070565b9050919050565b6130ab81613090565b82525050565b60006020820190506130c660008301846130a2565b92915050565b6130d581613090565b81146130e057600080fd5b50565b6000813590506130f2816130cc565b92915050565b6000806040838503121561310f5761310e612e8d565b5b600061311d858286016130e3565b925050602061312e8582860161302e565b9150509250929050565b60008060006060848603121561315157613150612e8d565b5b600061315f868287016130e3565b9350506020613170868287016130e3565b92505060406131818682870161302e565b9150509250925092565b6000819050919050565b61319e8161318b565b82525050565b60006020820190506131b96000830184613195565b92915050565b6131c88161300d565b82525050565b60006020820190506131e360008301846131bf565b92915050565b6000602082840312156131ff576131fe612e8d565b5b600061320d848285016130e3565b91505092915050565b61321f81612f1c565b811461322a57600080fd5b50565b60008135905061323c81613216565b92915050565b6000806040838503121561325957613258612e8d565b5b6000613267858286016130e3565b92505060206132788582860161322d565b9150509250929050565b600080fd5b600080fd5b7f4e487b7100000000000000000000000000000000000000000000000000000000600052604160045260246000fd5b6132c482612fa1565b810181811067ffffffffffffffff821117156132e3576132e261328c565b5b80604052505050565b60006132f6612e83565b905061330282826132bb565b919050565b600067ffffffffffffffff8211156133225761332161328c565b5b61332b82612fa1565b9050602081019050919050565b82818337600083830152505050565b600061335a61335584613307565b6132ec565b90508281526020810184848401111561337657613375613287565b5b613381848285613338565b509392505050565b600082601f83011261339e5761339d613282565b5b81356133ae848260208601613347565b91505092915050565b600080600080608085870312156133d1576133d0612e8d565b5b60006133df878288016130e3565b94505060206133f0878288016130e3565b93505060406134018782880161302e565b925050606085013567ffffffffffffffff81111561342257613421612e92565b5b61342e87828801613389565b91505092959194509250565b600060ff82169050919050565b6134508161343a565b811461345b57600080fd5b50565b60008135905061346d81613447565b92915050565b61347c8161318b565b811461348757600080fd5b50565b60008135905061349981613473565b92915050565b60008060008060008060c087890312156134bc576134bb612e8d565b5b60006134ca89828a016130e3565b96505060206134db89828a0161302e565b95505060406134ec89828a0161302e565b94505060606134fd89828a0161345e565b935050608061350e89828a0161348a565b92505060a061351f89828a0161348a565b9150509295509295509295565b6000806040838503121561354357613542612e8d565b5b6000613551858286016130e3565b9250506020613562858286016130e3565b9150509250929050565b7f4e487b7100000000000000000000000000000000000000000000000000000000600052602260045260246000fd5b600060028204905060018216806135b357607f821691505b602082108114156135c7576135c661356c565b5b50919050565b7f4552433732313a20617070726f76656420717565727920666f72206e6f6e657860008201527f697374656e7420746f6b656e0000000000000000000000000000000000000000602082015250565b6000613629602c83612f5d565b9150613634826135cd565b604082019050919050565b600060208201905081810360008301526136588161361c565b9050919050565b7f4552433732313a20617070726f76616c20746f2063757272656e74206f776e6560008201527f7200000000000000000000000000000000000000000000000000000000000000602082015250565b60006136bb602183612f5d565b91506136c68261365f565b604082019050919050565b600060208201905081810360008301526136ea816136ae565b9050919050565b7f4552433732313a20617070726f76652063616c6c6572206973206e6f74206f7760008201527f6e6572206e6f7220617070726f76656420666f7220616c6c0000000000000000602082015250565b600061374d603883612f5d565b9150613758826136f1565b604082019050919050565b6000602082019050818103600083015261377c81613740565b9050919050565b7f4552433732313a207472616e736665722063616c6c6572206973206e6f74206f60008201527f776e6572206e6f7220617070726f766564000000000000000000000000000000602082015250565b60006137df603183612f5d565b91506137ea82613783565b604082019050919050565b6000602082019050818103600083015261380e816137d2565b9050919050565b7f4f776e61626c653a2063616c6c6572206973206e6f7420746865206f776e6572600082015250565b600061384b602083612f5d565b915061385682613815565b602082019050919050565b6000602082019050818103600083015261387a8161383e565b9050919050565b7f4552433732313a206f776e657220717565727920666f72206e6f6e657869737460008201527f656e7420746f6b656e0000000000000000000000000000000000000000000000602082015250565b60006138dd602983612f5d565b91506138e882613881565b604082019050919050565b6000602082019050818103600083015261390c816138d0565b9050919050565b7f4552433732313a2062616c616e636520717565727920666f7220746865207a6560008201527f726f206164647265737300000000000000000000000000000000000000000000602082015250565b600061396f602a83612f5d565b915061397a82613913565b604082019050919050565b6000602082019050818103600083015261399e81613962565b9050919050565b7f566f7465733a20626c6f636b206e6f7420796574206d696e6564000000000000600082015250565b60006139db601a83612f5d565b91506139e6826139a5565b602082019050919050565b60006020820190508181036000830152613a0a816139ce565b9050919050565b7f566f7465733a207369676e617475726520657870697265640000000000000000600082015250565b6000613a47601883612f5d565b9150613a5282613a11565b602082019050919050565b60006020820190508181036000830152613a7681613a3a565b9050919050565b6000608082019050613a926000830187613195565b613a9f60208301866130a2565b613aac60408301856131bf565b613ab960608301846131bf565b95945050505050565b7f566f7465733a20696e76616c6964206e6f6e6365000000000000000000000000600082015250565b6000613af8601483612f5d565b9150613b0382613ac2565b602082019050919050565b60006020820190508181036000830152613b2781613aeb565b9050919050565b7f4552433732314d657461646174613a2055524920717565727920666f72206e6f60008201527f6e6578697374656e7420746f6b656e0000000000000000000000000000000000602082015250565b6000613b8a602f83612f5d565b9150613b9582613b2e565b604082019050919050565b60006020820190508181036000830152613bb981613b7d565b9050919050565b600081905092915050565b6000613bd682612f52565b613be08185613bc0565b9350613bf0818560208601612f6e565b80840191505092915050565b6000613c088285613bcb565b9150613c148284613bcb565b91508190509392505050565b7f4f776e61626c653a206e6577206f776e657220697320746865207a65726f206160008201527f6464726573730000000000000000000000000000000000000000000000000000602082015250565b6000613c7c602683612f5d565b9150613c8782613c20565b604082019050919050565b60006020820190508181036000830152613cab81613c6f565b9050919050565b7f4552433732313a206f70657261746f7220717565727920666f72206e6f6e657860008201527f697374656e7420746f6b656e0000000000000000000000000000000000000000602082015250565b6000613d0e602c83612f5d565b9150613d1982613cb2565b604082019050919050565b60006020820190508181036000830152613d3d81613d01565b9050919050565b7f4552433732313a207472616e736665722066726f6d20696e636f72726563742060008201527f6f776e6572000000000000000000000000000000000000000000000000000000602082015250565b6000613da0602583612f5d565b9150613dab82613d44565b604082019050919050565b60006020820190508181036000830152613dcf81613d93565b9050919050565b7f4552433732313a207472616e7366657220746f20746865207a65726f2061646460008201527f7265737300000000000000000000000000000000000000000000000000000000602082015250565b6000613e32602483612f5d565b9150613e3d82613dd6565b604082019050919050565b60006020820190508181036000830152613e6181613e25565b9050919050565b7f4e487b7100000000000000000000000000000000000000000000000000000000600052601160045260246000fd5b6000613ea28261300d565b9150613ead8361300d565b925082821015613ec057613ebf613e68565b5b828203905092915050565b6000613ed68261300d565b9150613ee18361300d565b9250827fffffffffffffffffffffffffffffffffffffffffffffffffffffffffffffffff03821115613f1657613f15613e68565b5b828201905092915050565b7f436865636b706f696e74733a20626c6f636b206e6f7420796574206d696e6564600082015250565b6000613f57602083612f5d565b9150613f6282613f21565b602082019050919050565b60006020820190508181036000830152613f8681613f4a565b9050919050565b7f4e487b7100000000000000000000000000000000000000000000000000000000600052603260045260246000fd5b7f4552433732313a206d696e7420746f20746865207a65726f2061646472657373600082015250565b6000613ff2602083612f5d565b9150613ffd82613fbc565b602082019050919050565b6000602082019050818103600083015261402181613fe5565b9050919050565b7f4552433732313a20746f6b656e20616c7265616479206d696e74656400000000600082015250565b600061405e601c83612f5d565b915061406982614028565b602082019050919050565b6000602082019050818103600083015261408d81614051565b9050919050565b7f4552433732313a20617070726f766520746f2063616c6c657200000000000000600082015250565b60006140ca601983612f5d565b91506140d582614094565b602082019050919050565b600060208201905081810360008301526140f9816140bd565b9050919050565b7f4552433732313a207472616e7366657220746f206e6f6e20455243373231526560008201527f63656976657220696d706c656d656e7465720000000000000000000000000000602082015250565b600061415c603283612f5d565b915061416782614100565b604082019050919050565b6000602082019050818103600083015261418b8161414f565b9050919050565b600061419d8261300d565b91507fffffffffffffffffffffffffffffffffffffffffffffffffffffffffffffffff8214156141d0576141cf613e68565b5b600182019050919050565b7f4e487b7100000000000000000000000000000000000000000000000000000000600052601260045260246000fd5b60006142158261300d565b91506142208361300d565b9250826142305761422f6141db565b5b828204905092915050565b60006142468261300d565b91506142518361300d565b925082614261576142606141db565b5b828206905092915050565b600060a0820190506142816000830188613195565b61428e6020830187613195565b61429b6040830186613195565b6142a860608301856131bf565b6142b560808301846130a2565b9695505050505050565b60006040820190506142d460008301856131bf565b6142e160208301846131bf565b9392505050565b600081519050919050565b600082825260208201905092915050565b600061430f826142e8565b61431981856142f3565b9350614329818560208601612f6e565b61433281612fa1565b840191505092915050565b600060808201905061435260008301876130a2565b61435f60208301866130a2565b61436c60408301856131bf565b818103606083015261437e8184614304565b905095945050505050565b60008151905061439881612ec3565b92915050565b6000602082840312156143b4576143b3612e8d565b5b60006143c284828501614389565b91505092915050565b7f1901000000000000000000000000000000000000000000000000000000000000600082015250565b6000614401600283613bc0565b915061440c826143cb565b600282019050919050565b6000819050919050565b61443261442d8261318b565b614417565b82525050565b6000614443826143f4565b915061444f8285614421565b60208201915061445f8284614421565b6020820191508190509392505050565b6144788161343a565b82525050565b60006080820190506144936000830187613195565b6144a0602083018661446f565b6144ad6040830185613195565b6144ba6060830184613195565b95945050505050565b7f4e487b7100000000000000000000000000000000000000000000000000000000600052602160045260246000fd5b7f45434453413a20696e76616c6964207369676e61747572650000000000000000600082015250565b6000614528601883612f5d565b9150614533826144f2565b602082019050919050565b600060208201905081810360008301526145578161451b565b9050919050565b7f45434453413a20696e76616c6964207369676e6174757265206c656e67746800600082015250565b6000614594601f83612f5d565b915061459f8261455e565b602082019050919050565b600060208201905081810360008301526145c381614587565b9050919050565b7f45434453413a20696e76616c6964207369676e6174757265202773272076616c60008201527f7565000000000000000000000000000000000000000000000000000000000000602082015250565b6000614626602283612f5d565b9150614631826145ca565b604082019050919050565b6000602082019050818103600083015261465581614619565b9050919050565b7f45434453413a20696e76616c6964207369676e6174757265202776272076616c60008201527f7565000000000000000000000000000000000000000000000000000000000000602082015250565b60006146b8602283612f5d565b91506146c38261465c565b604082019050919050565b600060208201905081810360008301526146e7816146ab565b9050919050565b7f53616665436173743a2076616c756520646f65736e27742066697420696e203260008201527f3234206269747300000000000000000000000000000000000000000000000000602082015250565b600061474a602783612f5d565b9150614755826146ee565b604082019050919050565b600060208201905081810360008301526147798161473d565b9050919050565b7f53616665436173743a2076616c756520646f65736e27742066697420696e203360008201527f3220626974730000000000000000000000000000000000000000000000000000602082015250565b60006147dc602683612f5d565b91506147e782614780565b604082019050919050565b6000602082019050818103600083015261480b816147cf565b905091905056fea2646970667358221220649871ea61a50631e542ce515102373d88544f294a2d28b9a58a19191d91417564736f6c634300080c0033",
  "immutableReferences": {
    "6881": [
      {
        "length": 32,
        "start": 6096
      }
    ],
    "6883": [
      {
        "length": 32,
        "start": 6055
      }
    ],
    "6885": [
      {
        "length": 32,
        "start": 5969
      }
    ],
    "6887": [
      {
        "length": 32,
        "start": 6172
      }
    ],
    "6889": [
      {
        "length": 32,
        "start": 6205
      }
    ],
    "6891": [
      {
        "length": 32,
        "start": 6139
      }
    ]
  },
  "source": "// SPDX-License-Identifier: ISC\npragma solidity ^0.8.12;\n\nimport \"@openzeppelin/contracts/token/ERC721/extensions/draft-ERC721Votes.sol\";\nimport \"@openzeppelin/contracts/access/Ownable.sol\";\n\ncontract Token is ERC721Votes, Ownable {\n    constructor(\n        string memory _name,\n        string memory _symbol\n    ) ERC721(_name, _symbol) EIP712(_name, \"1\") {\n\n    }\n\n    function getTotalSupply() public view returns(uint256) {\n        return _getTotalSupply();\n    }\n\n    function mint(address userAccount, uint256 tokenId) public onlyOwner {\n        _mint(userAccount, tokenId);\n    }\n\n    function burn(uint256 tokenId) public onlyOwner {\n        _burn(tokenId);\n    }\n\n\n}\n",
  "sourcePath": "/Users/ybotwe/Desktop/Gyidi/Gyidi backend/DAB/contracts/Token.sol",
  "compiler": {
    "name": "solc",
    "version": "0.8.12+commit.f00d7308.Emscripten.clang"
  },
  "schemaVersion": "3.4.6",
  "updatedAt": "2022-05-20T13:43:22.755Z",
  "networkType": "ethereum",
  "devdoc": {
    "kind": "dev",
    "methods": {
      "DOMAIN_SEPARATOR()": {
        "details": "Returns the contract's {EIP712} domain separator."
      },
      "approve(address,uint256)": {
        "details": "See {IERC721-approve}."
      },
      "balanceOf(address)": {
        "details": "See {IERC721-balanceOf}."
      },
      "delegate(address)": {
        "details": "Delegates votes from the sender to `delegatee`."
      },
      "delegateBySig(address,uint256,uint256,uint8,bytes32,bytes32)": {
        "details": "Delegates votes from signer to `delegatee`."
      },
      "delegates(address)": {
        "details": "Returns the delegate that `account` has chosen."
      },
      "getApproved(uint256)": {
        "details": "See {IERC721-getApproved}."
      },
      "getPastTotalSupply(uint256)": {
        "details": "Returns the total supply of votes available at the end of a past block (`blockNumber`). NOTE: This value is the sum of all available votes, which is not necessarily the sum of all delegated votes. Votes that have not been delegated are still part of total supply, even though they would not participate in a vote. Requirements: - `blockNumber` must have been already mined"
      },
      "getPastVotes(address,uint256)": {
        "details": "Returns the amount of votes that `account` had at the end of a past block (`blockNumber`). Requirements: - `blockNumber` must have been already mined"
      },
      "getVotes(address)": {
        "details": "Returns the current amount of votes that `account` has."
      },
      "isApprovedForAll(address,address)": {
        "details": "See {IERC721-isApprovedForAll}."
      },
      "name()": {
        "details": "See {IERC721Metadata-name}."
      },
      "nonces(address)": {
        "details": "Returns an address nonce."
      },
      "owner()": {
        "details": "Returns the address of the current owner."
      },
      "ownerOf(uint256)": {
        "details": "See {IERC721-ownerOf}."
      },
      "renounceOwnership()": {
        "details": "Leaves the contract without owner. It will not be possible to call `onlyOwner` functions anymore. Can only be called by the current owner. NOTE: Renouncing ownership will leave the contract without an owner, thereby removing any functionality that is only available to the owner."
      },
      "safeTransferFrom(address,address,uint256)": {
        "details": "See {IERC721-safeTransferFrom}."
      },
      "safeTransferFrom(address,address,uint256,bytes)": {
        "details": "See {IERC721-safeTransferFrom}."
      },
      "setApprovalForAll(address,bool)": {
        "details": "See {IERC721-setApprovalForAll}."
      },
      "supportsInterface(bytes4)": {
        "details": "See {IERC165-supportsInterface}."
      },
      "symbol()": {
        "details": "See {IERC721Metadata-symbol}."
      },
      "tokenURI(uint256)": {
        "details": "See {IERC721Metadata-tokenURI}."
      },
      "transferFrom(address,address,uint256)": {
        "details": "See {IERC721-transferFrom}."
      },
      "transferOwnership(address)": {
        "details": "Transfers ownership of the contract to a new account (`newOwner`). Can only be called by the current owner."
      }
    },
    "version": 1
  },
  "userdoc": {
    "kind": "user",
    "methods": {},
    "version": 1
  }
}